:100000000C94A0060C94E7060C94E7060C94E70603
:100010000C94E7060C94E7060C94E7060C94E706AC
:100020000C94E7060C94E7060C94CA2A0C949C2BBB
:100030000C94CD1C0C94E7060C94E7060C94E70690
:100040000C94E7060C94E7060C94E7060C94E7067C
:100050000C94E7060C94411D0C94E7060C94E706FB
:100060000C94E7060C94E7060C94E7060C94E7065C
:100070000C94E7060C94E7060C94E7060C94E7064C
:100080000C94E7060C94E7060C94E7060C94E7063C
:100090000C94E7060C94E7060C94E7060C94E7062C
:1000A0000C94E7060C94E7060C94E70668126812B5
:1000B0009A129A12E71205135D145D144713DC13AC
:1000C000ED13ED134D145D145D145614E314E31495
:1000D000F514F514EC14F514F514F514E314E31405
:1000E000F114F514F514F114092C302C282D302CB2
:1000F000282D7C2C9F2C282DF62C052D4A00165CD3
:1001000014001A000800150017001C0018000C004D
:10011000120013002F002A004D002B61040016006E
:10012000070009000A000B000D000E000F0033004D
:10013000340030004B00E1001D001B0006001900D8
:10014000050011001000360037003800E5002800D7
:100150004E00E300E2000000E2002C0000002C0052
:100160000000E7000000E40002510151010001001D
:100170001E001F0020002100220023002400250073
:10018000260027002D004C000100010001000100A5
:100190000100010001000100010001000100500008
:1001A0004F002E00010001000100010001000100CC
:1001B0000100010001000100010001000100010037
:1001C0000100010001000000010001000000010029
:1001D0000000010000000100010001000100010019
:1001E0003A003B003C003D003E003F004000410023
:1001F0004200430052000100010001000100010023
:100200000100010001000100010001000100500097
:100210004F00010001000100010001000100010088
:100220000100010001000100010051000100010076
:1002300001000100010000000100010000000100B8
:10024000000001000000010001000100444542558A
:10025000473A2064697361626C65642E0A00444504
:100260004255473A20656E61626C65642E0A000A49
:10027000002530313662003A200025303258000A1D
:10028000722F6320303132333435363738394142BA
:10029000434445460A000A002530325820006B6569
:1002A00079626F6172645F7265706F72743A200078
:1002B0000A0025303258006B6579626F6172645FA5
:1002C0007365745F6C65643A2000290A0025750027
:1002D0002F002575005D280025640020002564009E
:1002E000200025640020002564007C002530325861
:1002F000006D6F7573656B6579205B62746E7C78D9
:100300002079207620685D287265702F61636C29E2
:100310003A205B006D6B5F776865656C5F74696D33
:10032000655F746F5F6D6178203D2025640A006D04
:100330006B5F776865656C5F6D61785F737065652D
:1003400064203D2025640A006D6B5F74696D655FF4
:10035000746F5F6D6178203D2025640A006D6B5FCE
:100360006D61785F7370656564203D2025640A00C7
:100370006D6B5F696E74657276616C203D202564DB
:100380000A006D6B5F64656C6179203D2025640A0D
:10039000006D6B5F776865656C5F74696D655F7430
:1003A0006F5F6D6178203D2025640A006D6B5F777B
:1003B0006865656C5F6D61785F7370656564203D2D
:1003C0002025640A006D6B5F74696D655F746F5FF3
:1003D0006D6178203D2025640A006D6B5F6D61784A
:1003E0005F7370656564203D2025640A006D6B5F56
:1003F000696E74657276616C203D2025640A006D1B
:100400006B5F64656C6179203D2025640A000A00F9
:10041000257500363A20776865656C5F74696D658F
:100420005F746F5F6D61783A20000A0025750035B2
:100430003A20776865656C5F6D61785F737065659C
:10044000643A20000A00257500343A2074696D650D
:100450005F746F5F6D61783A20000A002575003384
:100460003A206D61785F73706565643A20000A0018
:10047000257500323A20696E74657276616C286D5C
:1004800073293A20000A00257500313A2064656C12
:100490006179282A31306D73293A20000A092D200C
:1004A00056616C756573202D0A004D3E004D256424
:1004B0003E20003F007365742064656661756C744E
:1004C0000A00433E200077686572652064656C749D
:1004D000613A20637572736F723D25642C207768D2
:1004E00065656C3D25640A53656520687474703ACF
:1004F0002F2F656E2E77696B6970656469612E6F49
:1005000072672F77696B692F4D6F7573655F6B65C8
:1005100079730A000A092D204D6F7573656B657933
:10052000202D0A4553432F713A09717569740A31B8
:100530003A0964656C6179282A31306D73290A3271
:100540003A09696E74657276616C286D73290A3395
:100550003A096D61785F73706565640A343A0974AD
:10056000696D655F746F5F6D61780A353A09776808
:1005700065656C5F6D61785F73706565640A363AB6
:1005800009776865656C5F74696D655F746F5F6D31
:1005900061780A0A703A097072696E742076616C2B
:1005A0007565730A643A09736574206465666175DC
:1005B0006C74730A75703A092B310A646F776E3A5E
:1005C000092D310A706775703A092B31300A70674E
:1005D000646F776E3A092D31300A0A73706565646D
:1005E000203D2064656C7461202A206D61785F7302
:1005F00070656564202A2028726570656174202FFB
:100600002074696D655F746F5F6D6178290A003FC2
:10061000004D3E2000433E20004C25640A007469D2
:100620006D65725F72656164333228293A20253026
:10063000346C580A006B6579626F6172645F69643B
:100640006C653A2025580A006B6579626F617264A7
:100650005F70726F746F636F6C3A2025580A006880
:100660006F73745F6B6579626F6172645F6C6564F0
:100670007328293A2025580A000A092D205374614D
:10068000747573202D0A004743433A20352E342ECB
:1006900030204156522D4C4942433A20322E302EC2
:1006A00030204156525F415243483A2061767235BC
:1006B0000A004F5054494F4E533A204C5546412062
:1006C0004D4F5553454B45592045585452414B4584
:1006D0005920434F4E534F4C4520434F4D4D414EB3
:1006E0004420343039360A004255494C443A2022DD
:1006F000627265616B706F696E745F323031395F41
:1007000030385F33302E312E392D3236382D673662
:10071000323361383822202831303A30383A313992
:10072000205365702031312032303139290A00568A
:1007300049443A2030784230304228636662656E20
:1007400064657229205049443A2030783030303086
:10075000286E696768746D61726529205645523A42
:10076000203078303030310A00444553433A20413C
:10077000203530252066726F6D2054686520536FD8
:100780006369657479206F66207468652043726FB1
:1007900073736564204B6579730A000A092D20562E
:1007A000657273696F6E202D0A000A092D20436F50
:1007B0006E736F6C65202D0A4553432F713A097192
:1007C0007569740A6D3A096D6F7573656B65790AA1
:1007D000000A092D204D61676963202D0A443A09FA
:1007E0004465627567204D65737361676520546F5A
:1007F00067676C650A583A094D61747269782044DC
:1008000065627567204D6F646520546F67676C651E
:10081000202D2053686F77206B6579707265737334
:10082000657320696E206D617472697820677269E2
:10083000640A4B3A094B6579626F617264204465C2
:1008400062756720546F67676C65202D2053686F51
:1008500077206B65797072657373207265706F7243
:10086000740A4D3A094465627567204D6F7573656A
:1008700020546F67676C650A563A0956657273694A
:100880006F6E0A533A095374617475730A433A09D7
:10089000416374697661746520436F6E736F6C6534
:1008A000204D6F64650A46312D4631303A09537741
:1008B0006974636820746F204C6179657220302DF3
:1008C000392028463130203D204C30290A302D393E
:1008D0003A0953776974636820746F204C617965B5
:1008E0007220302D390A47524156453A09537769EB
:1008F00074636820746F204C617965722030202801
:10090000616C7465726E617465290A423A094A75B0
:100910006D7020746F20426F6F746C6F61646572CC
:100920000A4553433A094A756D7020746F20426F2F
:100930006F746C6F616465722028616C7465726E8F
:10094000617465290A453A095072696E74204545FB
:1009500050524F4D2053657474696E67730A425349
:10096000504143453A09436C6561722045455052F8
:100970004F4D0A000A002575002E6E6B726F3A20EB
:10098000000A002575002E737761705F6261636BEA
:10099000736C6173685F6261636B73706163653A06
:1009A00020000A002575002E737761705F67726101
:1009B00076655F6573633A20000A002575002E6E28
:1009C0006F5F6775693A20000A002575002E7377FE
:1009D00061705F72616C745F726775693A20000ABA
:1009E000002575002E737761705F6C616C745F6CAD
:1009F0006775693A20000A002575002E73776170CB
:100A00005F7263746C5F726775693A20000A002533
:100A100075002E737761705F6C63746C5F6C6775C3
:100A2000693A20000A002575002E636170736C6FAF
:100A3000636B5F746F5F636F6E74726F6C3A2000EC
:100A40000A002575002E737761705F636F6E747294
:100A50006F6C5F636170736C6F636B3A20000A00A8
:100A600025303258006B65796D61705F636F6E661B
:100A700069672E7261773A20000A002575002E6D95
:100A80006F7573653A20000A002575002E6B657935
:100A9000626F6172643A20000A002575002E6D6154
:100AA000747269783A20000A002575002E656E611F
:100AB000626C653A20000A00253032580064656295
:100AC00075675F636F6E6669672E7261773A2000A3
:100AD0000A0025750064656661756C745F6C6179E8
:100AE00065723A20003F000A6D6F7573653A206F9A
:100AF00066660A000A6D6F7573653A206F6E0A00AC
:100B00000A6B6579626F6172643A206F66660A00EB
:100B10000A6B6579626F6172643A206F6E0A000A2F
:100B20006D61747269783A206F66660A000A6D61B9
:100B3000747269783A206F6E0A000A64656275679C
:100B40003A206F66660A000A64656275673A206F2C
:100B50006E0A000A0A4A756D70696E6720746F200C
:100B6000626F6F746C6F616465722E2E2E2000436D
:100B70003E2000436C656172696E672045455052A6
:100B80004F4D0A006565636F6E6669673A0A005BE0
:100B9000735D004B6579626F61726420737461727A
:100BA000742E0A005B575D005B535D005B525D0075
:100BB0005B445D005B435D000403300000001403F0
:100BC0006E0069006700680074006D0061007200CB
:100BD00065000000120363006600620065006E009D
:100BE00064006500720000000403090409025B0050
:100BF000030100A0FA09040000010301010009211A
:100C0000110100012240000705810308000A0904C0
:100C100001000103000000092111010001228500EB
:100C20000705820320000A090402000203000000F5
:100C30000921110100012222000705830320000180
:100C40000705030320000112011001000000080B3A
:100C5000B000000100010203010631FF0974A10187
:100C60000975150026FF0095207508810209761583
:100C70000026FF00952075089102C005010902A118
:100C80000185020901A100050919012905150025A1
:100C90000195057501810295017503810105010921
:100CA0003009311581257F950275088106093815AF
:100CB00081257F950175088106050C0A380215818A
:100CC000257F950175088106C0C005010980A10135
:100CD00085031601002603001A81002A830075107F
:100CE00095018100C0050C0901A1018504160100D0
:100CF000269C021A01002A9C02751095018100C0F1
:100D000005010906A101050719E029E715002501DC
:100D10009508750181029501750881010508190181
:100D20002905950575019102950175039101050746
:100D3000190029FF150026FF00950675088100C0DF
:100D400011241FBECFEFDAE0DEBFCDBF04B603FE35
:100D500027C08091080290910902A0910A02B091E7
:100D60000B028730904BA740B04BD1F41092080291
:100D70001092090210920A0210920B0214BE84B75C
:100D8000877F84BF0FB6F894A89580916000886132
:100D900080936000109260000FBEE0E0F8E30995D8
:100DA00011E0A0E0B1E0E2EBFBE502C005900D929E
:100DB000AE33B107D9F722E0AEE3B1E001C01D9236
:100DC000A830B207E1F70E94EB270C94D72D0C94C2
:100DD0000000FF93EF93E0913E01F0913F013097C7
:100DE00009F00995EF91FF910895FC0185918030FC
:100DF00011F0EFDFFBCF0895FF27E0E230E247FF7D
:100E00000CC0419597FF09C0EDE260957095809503
:100E10009095611D711D811D911D27FF02C02195B7
:100E200030E350E2AA27660F771F881F991FAA1F79
:100E3000A41710F0A41B63955A95A9F7AA3008F0DF
:100E4000A95FA05DAF93F3956115710581059105CB
:100E500041F7ED3211F4EF93F395F21718F43F9345
:100E6000F395FBCF8F91B5DFFA95E1F70895E991FE
:100E7000F9918591803021F0853219F0AADFF9CF00
:100E8000089520E0E89455915532C1F3503311F4A0
:100E9000689455915A3348F4505390F3220F022E20
:100EA000220F220F200D250FF4CF0EF421958991EA
:100EB0009991533619F3533729F1533559F1BC0140
:100EC00088279927E8945C3621F489919991689450
:100ED0005591543639F446EF7EF077FF0DC08FEF11
:100EE0009FEF0AC055374AE039F0583540E121F00C
:100EF000523642E009F00895FF93EF937DDFEF91C2
:100F0000FF91B7CFFF93EF93FC0181918030B9F34C
:100F100060DFFBCFFF93EF9368DFF1CFDF93CF93D9
:100F2000CDB7DEB72596A3DFCF91DF910895089561
:100F30000895089581E0089581E008950C949C0738
:100F40001F93CF93DF9300D000D01F92CDB7DEB7B1
:100F500049835A836B832091660189819A8121118B
:100F600012C0662349F00E94331A182F682F898116
:100F70009A810E94DC1903C00E94071A182F698108
:100F80007A81812F04C00E94331A69817A810F907F
:100F90000F900F900F900F90DF91CF911F910C94B5
:100FA000C309FC01408151816281738184810C9469
:100FB000A0070E94270D8FE39CE90197F1F700C07D
:100FC00000000E94270D80E00E94730C81FF04C086
:100FD0000E948F1B0C94671D08950E94D9070E94E0
:100FE000951B811102C00E94351C0C946F0C0C944F
:100FF000710C0C9499070C94F90708950E94D11470
:101000000E94FD072FEF84E39CE021508040904038
:10101000E1F700C000000C94671D0F931F93CF935E
:10102000DF938C010E94D107EC01B8010E949E075A
:101030008823D9F0B801CE010E94750E8823A9F04B
:10104000C631FCE5DF0799F008F051C0C130ECE58E
:10105000DE07A1F108F058C0C115DC4509F06AC1EE
:10106000F801828181110E94FE07C0E082C10E94C6
:10107000B41A982FF801828120910001309101016A
:10108000882379F09A7A81E009F480E08093400126
:10109000911102C069E201C065E3C9010E946A1CA6
:1010A0000AC080914001811102C069E201C065E37C
:1010B000C9010E946C1C0E94021BD7CFF8018281DB
:1010C000882399F28091D701C82FC095C170C0FBC9
:1010D00080F98093D701CC2329F08EE592E00E941D
:1010E000F506C3CF8CE492E00E94F50642C1CE3DE6
:1010F000ECE5DE0709F425C108F415C1CE01875FD0
:101100009C45079708F016C1F8018281882309F4ED
:1011100011C10E94951B811102C00E94351C0E94C2
:10112000A81B9093FA018093F901CF30FCE5DF070B
:1011300009F4CDC008F042C0C830ECE5DE0709F480
:10114000A8C0F0F4C4308CE5D80709F490C068F466
:10115000C230FCE5DF0709F486C0C330DC4509F086
:10116000D9C08091F9018260D3C0C630ECE5DE07BA
:1011700009F487C008F089C08091F9018860C8C06F
:10118000CB308CE5D80709F493C068F4C930FCE58E
:10119000DF0709F482C0CA30DC4509F0BBC080918A
:1011A000F90188607EC0CD30ECE5DE0709F484C02B
:1011B00008F085C08091F9018D7FAAC0C73F8CE5FA
:1011C000D80709F457C050F5C231FCE5DF0709F430
:1011D00086C068F4C031ECE5DE0709F47CC0C1319B
:1011E000DC4509F097C08091F9018F7B91C0C43133
:1011F0008CE5D80709F483C008F475C0C531DC4517
:1012000009F088C08091F90182FB222720F991E042
:10121000922790FB82F990FB83F97AC0CA3F8CE554
:10122000D80709F450C058F4C83FFCE5DF0729F19E
:10123000C93FDC4509F06EC08091FA015CC0CC3F2B
:10124000ECE5DE0709F454C070F1CD3FDC4509F050
:1012500061C08091FA01982F909591708E7F892BB3
:1012600090FB81F949C08091F901816051C0809162
:10127000F90117C08091FA0119C08091FA018260CA
:101280003BC08091F901806143C08091F901806287
:101290003FC08091F90180643BC08091F901806872
:1012A00037C0846035C08091FA018260816024C0BB
:1012B0008091F9018E7F2CC08091F90117C0809137
:1012C000F901877F25C08091FA018D7F15C080913B
:1012D000F9018F7E1DC08091F9018F7D19C0809129
:1012E000F9018F7715C08091F901877F8B7F10C03E
:1012F0008091FA018D7F8E7F8093FA010BC08091DF
:10130000F90187FB222720F991E0922790FB87F9CA
:101310008093F9018091F9019091FA010E94B91B23
:101320000E94D114A2CECC3D8CE5D80791F0CD3DE2
:10133000DC45B1F0C801DF91CF911F910F910C9462
:101340009A07F8018281882309F48FCE0E94351C08
:101350008CCEF8018281882309F487CE80E006C014
:10136000F8018281882309F480CE82E00E949128CE
:101370007CCE8C2FDF91CF911F910F91089580E04B
:1013800090E00895089528E3829FC0011124FC0194
:101390002EE0729FE00DF11D1124E60FF11DEE0FFE
:1013A000FF1FE450FF4F859194910895880F991F76
:1013B000FC01E159FD4F859194910895CF93DF93FE
:1013C0000E94C3090E94980BEC018115904508F01A
:1013D00041C0C11580E4D80708F028C1C83ED10536
:1013E00010F5C03ED10508F09FC1C83AD10578F488
:1013F000C53AD10508F0A2C0C130D10509F494C1A5
:1014000008F445C1C430D10508F08EC140C1CF3BBE
:10141000D10508F49EC0C03CD10508F438C1CE0106
:10142000805C9109F5C0C11590E2D90758F4C11547
:1014300021E0D20708F078C1C03FD10508F427C1E8
:10144000D06572C1C11580E3D80708F0E5C0CE01B0
:101450009F70DEC0C11595E5D90708F043C0C115DE
:1014600024E5D20708F0F9C0C11582E5D80708F5D0
:10147000C11591E5D90708F0DCC0CE0174E096955E
:1014800087957A95E1F783709C2F937021E030E087
:1014900002C0220F331F9A95E2F73C68382BCF70B9
:1014A000C695C69580E2C89FE0011124C22BD32BBC
:1014B0003BC19E01237033278C2F86958695C115DD
:1014C000D34508F0BBC0C1E0D0E002C0CC0FDD1FA7
:1014D0002A95E2F720E2829FC0011124C82BD92B64
:1014E000DC6822C1C11529E5D207A0F4C11588E541
:1014F000D80708F0B7C0C11596E5D90708F0C7C0EE
:101500008C2F0E942C0C8F71C82FD0E0DC2FCC27A1
:10151000D0620AC1C1152AE5D20708F4A8C0CE01DD
:1015200090568115904208F0B2C08D2F8F710E94A5
:101530002C0CDD27D0628F71D82BF6C0C53AD105AF
:1015400009F4A8C0C63AD10509F0A7C0C2E8D0E4A2
:10155000EBC0C83AD10509F4A3C0C93AD10509F4D2
:10156000A2C0CA3AD10509F4A1C0CB3AD10509F409
:10157000A0C0CC3AD10509F49FC0CB3BD10509F4FA
:101580009EC0CC3BD10509F49DC0CD3AD10509F4EC
:101590009CC0C03BD10509F49BC0CE3AD10509F4EB
:1015A0009AC0CF3AD10509F499C0C13BD10509F4DD
:1015B00098C0C23BD10509F497C0C33BD10509F4DB
:1015C00096C0C43BD10509F495C0C53BD10509F4CB
:1015D00094C0C63BD10509F493C0C73BD10509F4BB
:1015E00092C0C83BD10509F491C0C93BD10509F4AB
:1015F00090C0CD3BD10509F48FC0CE3BD10509F495
:101600008EC0CA3BD10509F48DC0C0E0D4E48CC0C3
:101610000E94D609EC0188C0CE019927D3FF03C0F0
:10162000EC01D86C81C0EC01D06C7EC0DF70D06A58
:101630007BC0DC2FCC27C16FD06A76C0C1E0D0E080
:1016400002C0CC0FDD1F2A95E2F720E2829FC00185
:101650001124C82BD92BDA6867C0DC2FCC27C46FC4
:10166000D06A62C0DC2FCC27C06FD06A5DC08C2FDF
:101670008F700E942C0C94E0D695C7959A95E1F74F
:10168000CF70D0E0DC2FCC27D069C82B4DC0C0E094
:10169000D0E04AC0C1E8D0E447C0C3E8D0E444C0C9
:1016A000C2EED4E441C0C9EED4E43EC0CAEED4E4F4
:1016B0003BC0C5EBD4E438C0C6EBD4E435C0C3EBC3
:1016C000D4E432C0C4EBD4E42FC0C7EBD4E42CC0C4
:1016D000CCECD4E429C0CDECD4E426C0C3E8D5E4F6
:1016E00023C0CAE8D5E420C0C2E9D5E41DC0C4E9DE
:1016F000D5E41AC0C1E2D6E417C0C3E2D6E414C0F0
:10170000C4E2D6E411C0C5E2D6E40EC0C6E2D6E417
:101710000BC0C7E2D6E408C0CFE6D4E405C0C0E7FA
:10172000D4E402C0CAE2D6E4CE01DF91CF9108959D
:101730008238910569F1B0F48133910509F46DC0E7
:1017400048F48932910509F463C08A32910509F49D
:1017500069C008958533910509F455C08933910511
:10176000B9F00895833E910569F138F4803E910502
:10177000B1F0823E910509F10895863E9105A9F1E7
:10178000873E9105B9F1843E910509F064C023C0FC
:101790002091F90120FD4FC021FD4DC00895809199
:1017A000F90180FD44C08091FA0180FF44C080911E
:1017B000F90184FD42C083EE4DC08091F90182FFA2
:1017C00038C0F5CF8091F90182FD33C08091FA01D4
:1017D00080FD31C0ECCF8091FA0181FF32C0809151
:1017E000F90184FD2AC087EE35C08091F90183FF9D
:1017F00026C0F5CF8091F90183FD21C08091FA01C7
:1018000081FD1FC0ECCF8091F90185FD1CC01DC07A
:101810008091F90185FD19C016C08091F90186FDFE
:1018200016C017C08091F90186FD13C010C089E36E
:1018300011C082EE0FC080EE0DC080E00BC086EEBE
:1018400009C084EE07C089E205C085E303C08AE2CF
:1018500001C081E390E008959091F90192FF0DC0DD
:10186000282F2871283019F4877F846006C0282F1C
:101870002471243011F48B7F886093FF0DC0282FD2
:101880002871283119F4877E846106C0282F2471BD
:10189000243111F48B7E88612091FA0120FF0DC064
:1018A000382F3871383019F4877F816006C0382F9F
:1018B0003171313011F48E7F886021FF0DC0282FE7
:1018C0002871283119F4877E816106C0282F217183
:1018D000213111F48E7E886194FD877E08950C94E9
:1018E00097070C949807E82FF0E0EE0FFF1FEF5BCF
:1018F000FE4F808191810895CF92DF92EF92FF9207
:101900000F931F93CF93DF938FE792E00E94F5062A
:1019100081E4E82E81E0F82EC0E0D0E09AE7C92EFD
:1019200092E0D92E01E712E0DF93CF93DF92CF92BE
:101930000E948E0787E792E00E94F506F7018191E9
:1019400091917F010E947C1B9F938F931F930F9314
:101950000E948E078FE692E00E94F50621968DB7D1
:101960009EB708960FB6F8949EBF0FBE8DBFC430C9
:10197000D105D1F6DF91CF911F910F91FF90EF909C
:10198000DF90CF900895CF93DF93A1E2B1E045E2DD
:1019900051E061E070E08D91E82FE295EF70F0E0AA
:1019A00021A18F70EB0102C0CC0FDD1F8A95E2F7F9
:1019B000CE019C2F9095922391A392A1892B82A373
:1019C0004A175B0741F7A3E1B1E041E050E08D9198
:1019D000E82FE295EF70F0E021A18F70BA0102C00C
:1019E000660F771F8A95E2F7CB01962F9095922389
:1019F00091A392A1892B82A371E0A132B70739F795
:101A000010924A0110924901109242011092410134
:101A100010924C0110924B0110924401109243011C
:101A200010924E0110924D01109246011092450104
:101A30001092500110924F011092480110924701EC
:101A400084E00E94C60DDF91CF910C94ED073F9288
:101A50004F925F926F927F928F929F92AF92BF92BE
:101A6000CF92DF92EF92FF920F931F93CF93DF936A
:101A700061E271E0A9E4B1E021E5622E21E0722E7D
:101A8000412C01E010E05D018D909C901197119622
:101A90001C921E92EB018991BE01E82FE295EF7036
:101AA000F0E021A18F70A80102C0440F551F8A9554
:101AB000E2F7CA01242B21A322A1342E3094232142
:101AC00022A350EA5A95F1F793E1E92E91E0F92E1D
:101AD00040E050E0E70159907E01252D22952F70BE
:101AE00030E0E90128A1CD90DC90119730E0D52DB0
:101AF000DF7002C035952795DA95E2F720FD08C022
:101B00009801042E02C0220F331F0A94E2F702C08C
:101B100020E030E0C22AD32A1196DC92CE924F5FA9
:101B20005F4F4E305105B1F691A1D32DD923D1A3EA
:101B300092A1892B82A3129681E0F5012081318147
:101B40002815390509F480E0482A6A167B0609F051
:101B50009ACF242D44E061E471E089E491E00E9491
:101B6000C70D0E94F707842DDF91CF911F910F9130
:101B7000FF90EF90DF90CF90BF90AF909F908F90AD
:101B80007F906F905F904F903F9008950895FF92DF
:101B90000F931F93CF93DF93F82E092F162FD72F74
:101BA000C42F222349F081E0809353010E94FF1C3F
:101BB0009093520180935101809153018823D9F071
:101BC00080915101909152010E94171D069798F043
:101BD000EF2DF02FA12FBD2F80E090E04C2F50E093
:101BE0008417950734F4219131912D933D930196FB
:101BF000F7CF10925301DF91CF911F910F91FF907A
:101C000008950F931F93CF93DF93C62FD42F122FD6
:101C1000FC0182818823C9F0609356010E94FF1C59
:101C2000909355018093540180E28C0F883008F026
:101C300057C0C77081E001C0880FCA95EAF7DF91ED
:101C4000CF911F910F910C94281280915601681327
:101C500030C080915401909155010E94171D883C1D
:101C6000910538F500E20D0FCD17B9F080E28C0F29
:101C7000883040F4C77081E001C0880FCA95EAF748
:101C80000E942F12083028F581E09D2F977001C027
:101C9000880F9A95EAF70E942812812F0E94151248
:101CA0000830F0F4D77081E001C0880FDA95EAF7C8
:101CB0000AC080E28C0F883098F4C77081E001C0C0
:101CC000880FCA95EAF7DF91CF911F910F910C947D
:101CD0002F12812FDF91CF911F910F910C9415122C
:101CE000DF91CF911F910F9108959C01CB01203F6F
:101CF0004CE53407F9F078F4283DFCE53F07B9F0EE
:101D0000293D4CE5340711F1273D3C4531F526E2EC
:101D100041EE61EE1EC0223FFCE53F0799F070F0F6
:101D2000233F3C45D1F427E245EE66EE12C027E2A0
:101D300045EE0EC026E241EE60EE0BC027E245EE16
:101D400064EE07C026E241EE62EE03C028E241E005
:101D500065EE0E94010E80E00895FC0182818823D7
:101D600019F010925601089581E0089590935C0156
:101D700080935B010895E0915B01F0915C013097E5
:101D800021F00190F081E02D099480E00895EF9218
:101D9000FF920F931F93CF93DF93E0915B01F0913C
:101DA0005C013097B1F18C010280F381E02D09953F
:101DB0008091D70182FF2DC080FF04C08EE992E0A0
:101DC0000E94F506E80118E088E9E82E82E0F82E86
:101DD0008091D70180FF0BC088811F928F93FF9263
:101DE000EF920E948E070F900F900F900F9011505E
:101DF00021961111EDCF8091D70180FF0AC086E9AD
:101E000092E0DF91CF911F910F91FF90EF900C9492
:101E1000F506DF91CF911F910F91FF90EF900895FC
:101E2000E0915B01F0915C01309739F022E0DC0138
:101E30002C930480F581E02D099408952091590197
:101E400030915A012817390771F090935A01809305
:101E50005901E0915B01F0915C01309721F006801F
:101E6000F781E02D09940895209157013091580190
:101E70002817390771F09093580180935701E0912A
:101E80005B01F0915C01309721F00084F185E02D39
:101E90000994089585B7806885BF85B7806885BF38
:101EA000089508950C94510F0C94520F0C94510FF7
:101EB0000C94510F0E944A0F0E94560F0C94540F1D
:101EC00081E008950E94F61C0E94C30C0E948B1DA5
:101ED0000C94580FCF93C82F8091D70182FF1EC05A
:101EE00080FF04C087EB92E00E94F5068091D70145
:101EF00080FF0CC01F92CF9382EB92E09F938F9351
:101F00000E948E070F900F900F900F908091D70135
:101F100080FF04C080EB92E00E94F5068C2FCF91E9
:101F20000C94FB075F926F927F928F929F92AF9279
:101F3000BF92CF92DF92EF92FF920F931F93CF93B6
:101F4000DF93CDB7DEB72A970FB6F894DEBF0FBE8A
:101F5000CDBF0E94270D0E94600F811111C08FEF2D
:101F600089838A831B820E94FF1C8160782F9D8356
:101F70008C8349815A816B818D810E944F1056C09C
:101F80009EE5692E91E0792E00E010E0882483948C
:101F9000912C502E802F0E94730C6C01F301A190A4
:101FA000B1903F01A826B926A114B10431F40F5F06
:101FB0001F4F0430110569F7D2CF8091D70181FD01
:101FC0000E947C0C80E090E07401082E02C0EE0CB0
:101FD000FF1C0A94E2F795012E213F21232B09F1E2
:101FE0008E835F82CE20DF2081E0CD2809F480E05F
:101FF00088870E94FF1C8160782F9A8789874E818D
:102000005F8168858A850E944F10000F111FF801BB
:10201000E25AFE4F80819181E826F926F182E08222
:1020200005C001968E30910579F6C1CF0E949F1FA1
:102030000E94BB0E90915D018917D9F00E94BB0EE2
:1020400080935D012A960FB6F894DEBF0FBECDBF18
:10205000DF91CF911F910F91FF90EF90DF90CF9084
:10206000BF90AF909F908F907F906F905F900C94F7
:102070006A0F2A960FB6F894DEBF0FBECDBFDF9170
:10208000CF911F910F91FF90EF90DF90CF90BF9075
:10209000AF909F908F907F906F905F900895CF93B7
:1020A000DF93CDB7DEB72B970FB6F894DEBF0FBE28
:1020B000CDBF4F83588769877A878B87DE0111965A
:1020C00086E0FD0111928A95E9F785E0FE013796D9
:1020D00001900D928A95E1F749815A816B817C814B
:1020E0008D819E810E94A1172B960FB6F894DEBFBA
:1020F0000FBECDBFDF91CF910895FC01808191810A
:102100000E94751A0895CF93882309F424C1C82F1B
:102110008238C1F40E94BB0E81FD1DC169E380912C
:102120000001909101010E946A1C0E94021B2FEF86
:1021300081EE94E0215080409040E1F700C0000023
:1021400069E319C0833801F50E94BB0E80FD03C10D
:1021500063E580910001909101010E946A1C0E9438
:10216000021B2FEF81EE94E0215080409040E1F778
:1021700000C0000063E580910001909101010E9480
:102180006C1CCF910C94021B8438C1F40E94BB0ECE
:1021900082FDE1C067E480910001909101010E94FD
:1021A0006A1C0E94021B2FEF81EE94E021508040B8
:1021B0009040E1F700C0000067E4DDCF8CEF8C0FAA
:1021C000813A68F48C2F0E9436248111C4C06C2F90
:1021D00080910001909101010E946A1CD2CF80E29F
:1021E0008C0F883048F4C77081E001C0880FCA9511
:1021F000EAF70E94B71AC5CF8BE58C0F833078F4CD
:10220000C53A29F0C63A31F083E890E005C081E88C
:1022100090E002C082E890E0CF910C941E0F88E518
:102220008C0F873108F08FC0C83A09F445C0C93A0D
:1022300009F445C0CA3A09F445C0CB3A09F445C08F
:10224000CC3A09F445C0CB3B09F445C0CC3B09F47A
:1022500045C0CD3A09F445C0C03B09F445C0CE3A6B
:1022600009F445C0CF3A09F445C0C13B09F445C063
:10227000C23B09F445C0C33B09F445C0C43B09F463
:1022800045C0C53B09F445C0C63B09F445C0C73B42
:1022900009F445C0C83B09F445C0C93B09F445C031
:1022A000CD3B09F445C0CE3B09F445C0CA3B09F417
:1022B00045C080E090E044C082EE90E041C089EEED
:1022C00090E03EC08AEE90E03BC085EB90E038C0E5
:1022D00086EB90E035C083EB90E032C084EB90E079
:1022E0002FC087EB90E02CC08CEC90E029C08DECE7
:1022F00090E026C083E891E023C08AE891E020C006
:1023000082E991E01DC084E991E01AC081E292E087
:1023100017C083E292E014C084E292E011C085E22B
:1023200092E00EC086E292E00BC087E292E008C025
:102330008FE690E005C080E790E002C08AE292E07C
:10234000CF910C94340FC03F30F08C2F0E94251E8B
:10235000CF910C94121FCF910895882309F464C083
:10236000823879F40E94BB0E81FF5EC069E38091E0
:102370000001909101010E946A1C0E94021B69E306
:1023800010C08338B1F40E94BB0E80FF4DC063E5DE
:1023900080910001909101010E946A1C0E94021B21
:1023A00063E580910001909101010E946C1C0C94E6
:1023B000021B843879F40E94BB0E82FF35C067E4AB
:1023C00080910001909101010E946A1C0E94021BF1
:1023D00067E4E7CF9CEF980F913A10F4682FE1CFB4
:1023E00090E2980F983050F4877091E001C0990FF7
:1023F0008A95EAF7892F0E94BD1AD9CF9BE5980FDD
:10240000933020F480E090E00C941E0F98E5980F34
:10241000973120F480E090E00C94340F803F20F05E
:102420000E948D1E0C94121F0895CF93C82F0E94F6
:102430008310C93349F42FEF87EE93E02150804099
:102440009040E1F700C000008C2FCF910C94AD11AB
:10245000882321F00E94B71A0C94021B0895882348
:1024600021F00E94BD1A0C94021B0895CF92DF92B6
:10247000EF92FF920F931F93CF93DF937C01062F70
:10248000C72FFC01158112951F70D281D1110E94B6
:10249000D41A0E94AD1A882379F0DD2369F080E216
:1024A000800F883048F082E00E944C1B0E94AD1AD9
:1024B00091E0D82ED92601C0D12CCC2EC2948FE029
:1024C000C8228C2D90E0FC01EA5AFF4F0C947B2D22
:1024D0008C2F807FCF70882311F0C295C07FDD23C1
:1024E00099F0CC2309F4C4C180E2800F883010F049
:1024F000011104C08C2F0E94B71A03C08C2F0E94B8
:10250000C71A0E94021BB4C1802F0E94AD11CC23B8
:1025100009F4D3C180E2800F883010F0011104C0AB
:102520008C2F0E94BD1A03C08C2F0E94CD1A0E94CE
:10253000021BC3C18C2F807FCF70803211F0C295F7
:10254000C07F002319F00130C9F022C0DD2371F0F3
:10255000112341F0113031F40E94E71A8C2B0E94B4
:10256000EF1AABC10E94E71A8C2B1DC0112319F082
:10257000113009F4A2C10E94F81A25C0DD2321F010
:10258000163008F09AC10EC0153008F096C11BC075
:10259000DD2361F0112331F0F701858180FF68C1EF
:1025A0008F7085838C2F0E94281287C1112359F0C8
:1025B000093309F06EC1FFEF27EE83E0F1502040B0
:1025C0008040E1F764C18C2F0E942F1276C18C2FBE
:1025D00086958695837019F0813061F06EC1DD2398
:1025E00021F0802F9C2F937002C080E090E00E9429
:1025F0001E0F6BC1DD2321F0802F9C2F937002C032
:1026000080E090E00E94340F60C1DD23F9F0053FC7
:1026100051F0063F71F0043FA9F48091F3019091CD
:10262000F40181600BC08091F3019091F40182600C
:1026300005C08091F3019091F40184609093F401BE
:102640008093F301802F0E94251E1EC0053F51F08C
:10265000063F71F0043FA9F48091F3019091F401D9
:102660008E7F0BC08091F3019091F4018D7F05C0A6
:102670008091F3019091F4018B7F9093F40180930A
:10268000F301802F0E948D1E0E94121F1EC18C2FED
:10269000837009F045C0D11114C1402F4295469571
:1026A0004770440F440F602F6F70862F90E0A0E0BA
:1026B000B0E0042E04C0880F991FAA1FBB1F0A9404
:1026C000D2F704FF10C00FE010E020E030E004C0BB
:1026D000000F111F221F331F4A95D2F70095109546
:1026E0002095309503C000E010E09801C695C6958E
:1026F000C370BC01CD01602B712B822B932BC23098
:1027000049F058F4C13019F00E94F218DAC00E9462
:10271000E018D7C00E940419D4C00E94DE18D1C0AE
:10272000DD2319F08C2F817001C08695882309F470
:10273000C8C0402F429546954770440F440F602F04
:102740006F70862F90E0A0E0B0E0042E04C0880FE8
:10275000991FAA1FBB1F0A94D2F704FF10C00FE0F5
:1027600010E020E030E004C0000F111F221F331FD3
:102770004A95D2F7009510952095309503C000E05A
:1027800010E09801C695C695C370BC01CD01602BC1
:10279000712B822B932BC23049F058F4C13019F0C1
:1027A0000E94B7198EC00E94A5198BC00E94C9193A
:1027B00088C00E94181985C0CF70DD2339F08C2F96
:1027C0000E943E19802F0E9428127BC0802F0E94F9
:1027D0002F128C2F0E945F1974C0023F01F128F460
:1027E000003F41F0013FA1F03FC0033FF9F0043F3B
:1027F00039F13AC0DD2341F0153008F05EC08C2F6E
:102800008F710E94841959C0163008F056C0F7CF56
:10281000DD2339F08C2F8F710E943E194EC0DD23CD
:10282000C9F38C2F8F710E945F1947C0DD2329F0F7
:102830008C2F8F710E94291940C00E9424193DC01D
:10284000DD2349F0CF718C2F0E943E1963E08C2F5D
:102850000E94371B32C081E00E944C1B123068F18D
:1028600082E00E944C1B29C0DD2331F0112391F23C
:10287000802F0E94831021C0112399F2093349F45B
:102880009FEFE7EEF3E09150E040F040E1F700C049
:102890000000802F0E94AD1110C04C2F4F70602F90
:1028A000C7010E94BF090E944F180FC04C2F4F70E4
:1028B000602FC7010E94C20908C088EF8C0D8430C8
:1028C00020F40E94BB0E0E94FB07DD20C9F00E948D
:1028D000A91A80FD15C0F70112820E94A31A0E9456
:1028E0003E19C7010E9489140E94A31ADF91CF915B
:1028F0001F910F91FF90EF90DF90CF900C945F1994
:10290000DF91CF911F910F91FF90EF90DF90CF90CB
:1029100008950F931F93CF93DF93EC0198818981E2
:102920002B813C81232B31F08F3F31F481E09F3F9D
:1029300019F403C081E001C080E080FD13C0CE0126
:102940000E940D08882371F0688179818A810E9434
:10295000801A8C010E94DB190E94CC18B801CE01AC
:102960000E943612DF91CF911F910F9108950E941E
:10297000D41A0E94E41A0E94021B0E943A200E946C
:10298000121F80E090E00E941E0F80E090E00C9407
:10299000340F80910001909101010E946E1C0C94F3
:1029A000B7140E94C41A0C94C914E92FE295EF7071
:1029B0004E2F50E0FA013297EE30F105B0F4EA59AB
:1029C000FF4F0C947B2D803F91F018F4883E68F403
:1029D0000EC0843F51F40BC0883E48F0813F29F47B
:1029E00006C093FB882780F9089580E0089581E070
:1029F00008950E94751A0E94D5140895CF93DF930D
:102A000000D000D01F92CDB7DEB70F900F900F907F
:102A10000F900F90DF91CF910895CF93DF9300D067
:102A200000D000D0CDB7DEB726960FB6F894DEBF43
:102A30000FBECDBFDF91CF9108951F93CF93DF934A
:102A4000C091670116E080916801C81799F0D0E045
:102A50001C9FF0011D9FF00D1124E759FE4F40818E
:102A6000518162817381848195810E940D15219627
:102A7000C770E9CFDF91CF911F91089540919901DF
:102A800050919A0160919B0170919C0180919D01F0
:102A900090919E010C940D15CF9380919E0182958B
:102AA0008F7009F05FC080919B01882309F45AC0A0
:102AB00080916701B091680170919901A0919A018C
:102AC00040919C0150919D0191E07F3F09F090E081
:102AD000692FC6E08B1709F445C04115510521F057
:102AE000AF3F21F020E003C021E001C0262F90E09D
:102AF00020FD35C0C89FF001C99FF00D1124E75992
:102B0000FE4F21812A132BC02081271328C0228148
:102B1000211125C0238134812417350710F4215059
:102B20003109241B350B283C3105C8F420919E0146
:102B30002F70206120939E0126E0289FF001299F9D
:102B4000F00D1124E259FE4F80818F7080618083E7
:102B500089E991E00E948914CF910C941D1501968A
:102B60008770B8CFCF910895AF92BF92CF92DF9286
:102B7000EF92FF920F931F93CF93DF93CDB7DEB702
:102B800061970FB6F894DEBF0FBECDBF8C0185E014
:102B9000F801DE011D9601900D928A95E1F7D801AA
:102BA0004C9111965C9111971296EC90309199018D
:102BB00060919A0180919C0190919D01009731F064
:102BC0006F3F31F421E03F3F19F403C021E001C021
:102BD00020E0B22FB170BB2E20FD60C1F801C38090
:102BE000D480A0909B01AA2009F4EEC020919E0100
:102BF000C816D90628F0D601A81BB90BCD0104C010
:102C0000809590958C0D9D1DFF24F394883C910533
:102C100080F0F12C207F09F09CC07C2DD98AC88AD5
:102C20006E2D89890E94FE1489E991E00E94891421
:102C30002DC1822F807F09F054C0561314C0431356
:102C400012C0FE2CE1100FC02F70206120939E0156
:102C50000E943E1589E991E00E94891480919E01AD
:102C6000F80185835CC1CD2831F05F3F31F481E00C
:102C70004F3F19F403C081E001C080E080FD03C034
:102C800081E08E2502C080E090E0F82FF170FF2EE9
:102C900080FF1CC0809167012091680136E0821797
:102CA00009F41AC190E0389FF001399FF00D11240A
:102CB000E759FE4F6181561306C06081461303C079
:102CC0006281E61203C001968770E9CFFE2CEE20E8
:102CD00009F425C180919E01816080939E01F12CB1
:102CE0001EC1561309C0431307C0E11005C08091EF
:102CF0009E01F8018583A4C04D875E878D859E85E2
:102D00000E94F914882379F1EE2069F120919E0147
:102D1000822F82958F7090E0029774F080919901D4
:102D200090919A0198878F831986DB86CA862C87B3
:102D3000CE0107960E94891486E0F801A9E9B1E066
:102D400001900D928A95E1F70E944C150E943E1564
:102D50000DC0561771F04D875E878D859E850E9448
:102D6000F91481111AC0C8010E948914FF24F39438
:102D7000D6C04313F0CFE110EECF80919E01F80151
:102D80008583C8010E94891486E0E9E9F1E0DF014A
:102D90001D928A95E9F7FA2CC2C0EE2021F320910A
:102DA0009E01822F82958F7090E002972CF2809185
:102DB000990190919A019A8389831B82DD82CC824A
:102DC0002E83CE010196B6CFC816D90628F0F6019B
:102DD000E81BF90BCF0104C0809590958C0D9D1DCB
:102DE000883C910548F0F12C7C2DD98AC88A6E2D3B
:102DF00089890E94FE144AC0FE2CEE2009F4B3CF4C
:102E0000561333C0431331C020919E0120FD24C0CE
:102E1000822F82958F70482F50E041155105E1F0C7
:102E2000D80115962C9315974F30510549F08F5FB7
:102E3000982F9295907F822F8F70892B15968C9367
:102E4000C8010E94891486E0F801A9E9B1E0019067
:102E50000D928A95E1F73DC086E0F801A9E9B1E05D
:102E600001900D928A95E1F75AC04D875E878D8556
:102E70009E850E94F91481115FCF80919E0181602F
:102E800080939E01C8010E94891449C0E9E9F1E0DC
:102E900086E0DF011D928A95E9F71BC0EE2009F458
:102EA00062CF4D875E878D859E850E94F914F82E2E
:102EB000882309F458CF86E0F801A9E9B1E0019030
:102EC0000D928A95E1F789E991E00E947D100E94B8
:102ED0004C150E943E1523C04D875E878D859E85CB
:102EE0000E94751A292F22952F70223028F49F7086
:102EF00039F0811105C00BC0243028F49F7049F4CB
:102F0000805E883020F0C8010E948914BF2CFB2C01
:102F100006C0D80115969C91907F91F7F8CF8F2D20
:102F200061960FB6F894DEBF0FBECDBFDF91CF9193
:102F30001F910F91FF90EF90DF90CF90BF90AF90D7
:102F400008951F93CF93DF93CDB7DEB72C970FB6BD
:102F5000F894DEBF0FBECDBF4F83588769877A874D
:102F60008B879C87CE0107960E94B4158823D1F0E9
:102F70009F8188852A853B85232B31F08F3F31F453
:102F800081E09F3F19F403C081E001C080E080FD33
:102F900047C04F81588569857A858B859C850E94BD
:102FA0000D153EC086E0FE013796DE0111960190B8
:102FB0000D928A95E1F7FF81E8856A857B85611529
:102FC000710531F0EF3F31F481E0FF3F19F403C0A8
:102FD00081E001C080E080FD23C02091680130E0E5
:102FE000C9010196877099274091670150E08417C5
:102FF0009507F1F1F983EA837D836C8396E0929FD4
:10300000D001939FB00D1124A759BE4FFE013196F8
:1030100001900D929A95E1F7809368010E941D1529
:1030200016E08091670190916801891771F1189FEE
:10303000C001112487599E4F0E94B415882329F19D
:10304000E09167011E9FF0011124E759FE4F408176
:10305000518162817381848195810E940D158091D7
:10306000670190E001968770992780936701D9CF17
:103070000E94D1141092680110926701E9E9F1E011
:1030800086E0DF011D928A95E9F72C960FB6F89439
:10309000DEBF0FBECDBFDF91CF911F910895EF929C
:1030A000FF920F931F93CF93DF938C01892B09F429
:1030B0006CC0F12CEE24E394E8012196F801849190
:1030C000843740F4843008F051C0813081F0823080
:1030D00019F15BC0853709F444C0A8F19CE7980F4B
:1030E000903708F052C08F770E94AD1141C00E5F3B
:1030F0001F4FFE01849190E2980F983050F4877032
:10310000FE2D01C0FF0F8A95EAF78F2F0E94D71A74
:1031100014C00E9483102DC00E5F1F4FFE018491CA
:1031200090E2980F983060F48770FE2D01C0FF0F79
:103130008A95EAF78F2F0E94DD1A0E94021B19C0A0
:103140000E94AD1116C00E5F1F4FFE01C491CC232B
:1031500081F08FE99FE00197F1F700C00000C150B6
:10316000F6CF0E5F1F4FFE01F49003C00E94831044
:103170008E018F2D882309F49FCFEFE9FFE031976F
:10318000F1F700C000008150F5CFDF91CF911F9182
:103190000F91FF90EF900895089508950C94CD1825
:1031A0000C94CE180E94D0186093C6017093C7018A
:1031B0008093C8019093C9010C94B7140C94D21851
:1031C0000F931F930091C6011091C7012091C80170
:1031D0003091C901602B712B822B932B1F910F9182
:1031E0000C94D2180F931F930091C6011091C70140
:1031F0002091C8013091C901602371238223932358
:103200001F910F910C94D2180F931F930091C60138
:103210001091C7012091C8013091C9016027712721
:10322000822793271F910F910C94D2180C94CD18DC
:103230000E9416196093C2017093C3018093C40168
:103240009093C5010C94B71460E070E0CB010C942E
:1032500018190F931F9341E050E060E070E08A017D
:103260009B0104C0000F111F221F331F8A95D2F744
:10327000C901B8011F910F910C9418190F931F9356
:1032800041E050E060E070E004C0440F551F661F4D
:10329000771F8A95D2F78091C2019091C301A091C6
:1032A000C401B091C5018A019B01082B192B2A2B5F
:1032B0003B2BC901B8011F910F910C9418190F9362
:1032C0001F9341E050E060E070E004C0440F551FE0
:1032D000661F771F8A95D2F7409550956095709537
:1032E0008091C2019091C301A091C401B091C50128
:1032F0008A019B01082319232A233B23C901B80112
:103300001F910F910C9418190F931F9341E050E0F7
:1033100060E070E004C0440F551F661F771F8A9558
:10332000D2F78091C2019091C301A091C401B091E4
:10333000C5018A019B01082719272A273B27C901B4
:10334000B8011F910F910C9418190F931F930091BE
:10335000C2011091C3012091C4013091C501602BBD
:10336000712B822B932B1F910F910C9418190F9393
:103370001F930091C2011091C3012091C4013091AB
:10338000C50160237123822393231F910F910C9415
:1033900018190F931F930091C2011091C30120913E
:1033A000C4013091C50160277127822793271F919F
:1033B0000F910C94181908952EE0929F800D1124FE
:1033C000E82FE695E695E695877051E001C0550F28
:1033D0008A95EAF785E0E89FF0011124E156FE4F57
:1033E00020E030E070E04081CB01022E02C09695D3
:1033F00087950A94E2F78170819584278523842735
:1034000081932F5F3F4F2530310569F708952EE0F6
:10341000929F800D1124682F669566956695982F6A
:10342000977085E0689FB001112440E050E080E093
:10343000FB01E40FF51FE156FE4F208130E0092E1D
:1034400002C0369527950A94E2F721703327042E9F
:1034500001C0220F0A94EAF7822B4F5F5F4F45307D
:10346000510531F70895BF92CF92DF92EF92FF920C
:103470000F931F93CF93DF938C01C090C201D09024
:10348000C301E090C401F090C5018091C601909104
:10349000C701A091C801B091C901C82AD92AEA2A56
:1034A000FB2ACFE1D0E0D701C6010C2E04C0B695AF
:1034B000A795979587950A94D2F780FD04C0219728
:1034C00090F7B12C07C0BC2EB8018C2F0E94DE09EA
:1034D0000197A9F38B2DDF91CF911F910F91FF9051
:1034E000EF90DF90CF90BF900895CF93DF93EC01E2
:1034F0000E94331ABE010E94DE09DF91CF91089528
:103500001F93CF93DF93EB0190916601992321F0F4
:10351000CB010E94751A13C0882349F0CB010E9489
:10352000331A182F682FCE010E94DC1904C0CB017A
:103530000E94071A182FBE01812F0E94DE09DF9119
:10354000CF911F9108958091CA01859585958595A4
:1035500008958091CA01877008959091CA0197706B
:1035600081E009F480E008958091D601089590915A
:10357000D601892B8093D601089580959091D6012C
:1035800089238093D60108951092D60108959091D1
:10359000D501892B8093D501089580959091D5010F
:1035A00089238093D50108951092D50108959091B3
:1035B000D401892B8093D401089580959091D401F2
:1035C00089238093D40108951092D40108958091A5
:1035D000CB01089508950C94EA1A0C94EB1A90917B
:1035E000CB01981721F08093CB010C94ED1A08952C
:1035F0008091CB01882329F01092CB0180E00C94BC
:10360000ED1A0895E0910001F09101018091D60139
:103610008083E0910001F091010190818091D501BA
:10362000892B8083E0910001F091010190818091CC
:10363000D401892B80838091CB01882381F0E09194
:103640000001F09101019081892B8083809100011C
:10365000909101010E94371C81110E94F81A8091FB
:103660000001909101010C94C70E0C94EA1A98E0A5
:10367000899F90011124262B2093CA010E943E1994
:103680008091CA018595859585950C94351B10927E
:10369000CA0180E00C94351B2091CA0180958223D9
:1036A0008093CA01982F977079F430E0482F082E44
:1036B000000C550B2417350739F0859585958595B0
:1036C0000E945F190C94471B089590933F018093CB
:1036D0003E0108958295982F937344E0949F900142
:1036E00011248C7C86958695282B822F8575880FD2
:1036F0002A7A2695822B0895CF93DF93D92F0E94A3
:103700006A1BC82F8D2F0E946A1B2C2F30E0322F8E
:103710002227A901482BCA01DF91CF9108956FEFAD
:103720007FEF80E090E00C94C12D80E090E00E945B
:103730009D2D21E08D3E9E4F09F020E0822F0895BF
:1037400082E090E00C94952D83E090E00C94952D10
:10375000CF9384E090E00E94952DC82F81E290E005
:103760000E94952D2C2F30E0A901582BCA01CF9132
:103770000895CF93C92F682F84E090E00E94A32D75
:103780006C2F81E290E0CF910C94A32DAB01BC0192
:103790008FE090E00C94B52DAB01BC0183E190E08B
:1037A0000C94B52D60E070E0CB010C94CC1B60E074
:1037B00070E0CB010E94C61B0C94D21B6DEE7EEF15
:1037C00080E090E00E94C12D60E082E090E00E94E5
:1037D000A32D60E083E090E00E94A32D1092C6012B
:1037E0001092C7011092C8011092C90160E084E0F4
:1037F00090E00E94A32D60E081E290E00E94A32D62
:1038000060E085E090E00E94A32D60E086E090E01B
:103810000E94A32D6FEF87E090E00E94A32D40E06F
:1038200050E0BA0188E090E00E94B52D60E08DE0A4
:1038300090E00E94A32D40E050E0BA0188E190E0C2
:103840000E94B52D60E087E190E00E94A32D40E04A
:1038500050E0BA018CE190E00E94B52D60E080E27A
:1038600090E00E94A32D0C94D71B0C94DE1BFC014E
:10387000329697E080E0915029F021912223D9F3EC
:103880008F5FF9CF08959C01FC0132969FEF80E095
:103890004191461789F09F3F19F4411101C0982FBB
:1038A0008F5F8630A9F79F3F39F0F901E90FF11DCD
:1038B00097FDFA956283089508959C012A5F3F4F12
:1038C000FC014281461301C01282019682179307C0
:1038D000B9F708950C94431C0C945D1C029626E0E5
:1038E000FC0111922A95E9F7089508950C94751C2E
:1038F0000C94751CCF930E94781C0E94270D0E9487
:10390000761CC0E08C2F0E94730C892B29F4CF5FAA
:10391000C430C1F780E001C081E0CF9108950C94DC
:10392000751C0C948F1C0E94911C8091FF018430A7
:1039300049F11092D80120E488E190E00FB6F894A4
:10394000A895809360000FBE2093600080E00E94E5
:10395000FB070E94911C83B7817F846083BF83B77C
:10396000816083BF7894889583B78E7F83BF0FB6BD
:10397000F894A8958091600088618093600010920F
:1039800060000FBE08950C94751C0E94D1140E9413
:10399000BB0E0E94FB070C94C31C1F920F920FB624
:1039A0000F9211248F939F93AF93BF938091D8016F
:1039B000811113C08091F5019091F601A091F7015A
:1039C000B091F8014196A11DB11D8093F50190932E
:1039D000F601A093F701B093F801BF91AF919F91C9
:1039E0008F910F900FBE0F901F90189582E084BDAD
:1039F00093E095BD9AEF97BD80936E0008952FB721
:103A0000F8948091F5019091F601A091F701B091A1
:103A1000F8012FBF08952FB7F8946091F5017091C8
:103A2000F6018091F7019091F8012FBF0895CF9290
:103A3000DF92EF92FF920F931F932FB7F89440916C
:103A4000F5015091F6016091F7017091F8012FBFD7
:103A50006A017B01EE24FF248C0120E030E0C016D7
:103A6000D106E206F30610F4415051099A01281BD1
:103A7000390BC9011F910F91FF90EF90DF90CF900C
:103A8000089578941F920F920FB60F9211248F937E
:103A90009F93AF93BF938091F5019091F601A09110
:103AA000F701B091F8010196A11DB11D8093F501B8
:103AB0009093F601A093F701B093F801BF91AF91F5
:103AC0009F918F910F900FBE0F901F90189581E0DE
:103AD0008093E00080E28093D8001092C9008FE1CB
:103AE0009EE40197F1F700C0000087E090EBDC0155
:103AF0008093080290930902A0930A02B0930B02EC
:103B00009CE088E10FB6F894A895809360000FBE02
:103B100090936000FFCF0E94951B811102C00E940C
:103B2000351C0E94A01B8093D7010E94A81B909374
:103B3000FA018093F9010E94A41B682F70E080E0D5
:103B400090E00C94DE188091DC0180FF0BC0609146
:103B5000050185E0689FB0011124759567957595FD
:103B600067952BC081FF09C06091050185E0689FC2
:103B7000B00111247595679520C082FF07C0609140
:103B8000050185E0689FB001112417C09091DB0109
:103B90009923D1F060910401961788F720910501CF
:103BA00085E0289F90011124929FA001939F500DC2
:103BB000112470E0CA010E94672D6038710540F43D
:103BC0006115710519F406C065E070E0862F08954F
:103BD0008FE7089581E008958091DC0180FF08C09F
:103BE0006091030170E0759567957595679521C0A3
:103BF00081FF06C06091030170E07595679519C05B
:103C000082FF04C06091030170E010C09091DB015D
:103C1000992399F0609102019617A0F78091030112
:103C2000899FC001112470E00E94672D60387105E2
:103C300040F46115710519F406C061E070E0862F4B
:103C400008958FE7089581E00895803F21F40E9450
:103C5000A31D819504C0813F29F40E94A31D809378
:103C6000E0010895823F21F40E94A31D819504C0C4
:103C7000833F29F40E94A31D8093DF010895893FAB
:103C800019F40E94EC1D05C08A3F31F40E94EC1D1E
:103C900081958093E10108958B3F21F40E94EC1DF2
:103CA000819504C08C3F29F40E94EC1D8093E201B1
:103CB0000895843F21F48091DE01816017C0853F23
:103CC00021F48091DE01826011C0863F21F4809151
:103CD000DE0184600BC0873F21F48091DE018860A3
:103CE00005C0883F31F48091DE0180618093DE0160
:103CF00008958D3F21F48091DC0181600BC08E3FDF
:103D000021F48091DC01826005C08F3F29F480910D
:103D1000DC0184608093DC010895803F39F4809158
:103D2000E00187FF6CC01092E00169C0813F29F477
:103D30008091E0011816BCF362C09091DF01823FD0
:103D400029F497FF5CC01092DF0159C0833F19F43A
:103D50001916CCF354C0893F41F48091E101181643
:103D60000CF04DC01092E1014AC08A3F29F48091C5
:103D7000E10187FF44C0F6CF8B3F39F48091E20127
:103D800087FF3DC01092E2013AC08C3F29F4809138
:103D9000E2011816BCF333C0843F21F48091DE01A8
:103DA0008E7F17C0853F21F48091DE018D7F11C089
:103DB000863F21F48091DE018B7F0BC0873F21F489
:103DC0008091DE01877F05C0883F31F48091DE015C
:103DD0008F7E8093DE0113C08D3F21F48091DC0142
:103DE0008E7F0BC08E3F21F48091DC018D7F05C05A
:103DF0008F3F29F48091DC018B7F8093DC018091DF
:103E0000DF0181110EC08091E00181110AC0809113
:103E1000E101811106C08091E201811102C010927E
:103E2000DB0108958091D70183FF7EC081EF92E08E
:103E30000E94F5068091DE011F928F938CEE92E036
:103E40009F938F930E948E078AEE92E00E94F50660
:103E50008091DF01282F082E000C330B3F938F93A6
:103E600087EE92E09F938F930E948E0785EE92E0FB
:103E70000E94F5068091E001282F082E000C330BDC
:103E80003F938F9382EE92E09F938F930E948E07D1
:103E900080EE92E00E94F5068091E101282F082E25
:103EA000000C330B3F938F938DED92E09F938F9394
:103EB0000E948E078BED92E00E94F5068091E20150
:103EC000282F082E000C330B3F938F9388ED92E040
:103ED0009F938F930E948E0785ED92E00E94F506D6
:103EE0008091DB011F928F9382ED92E09F938F93DD
:103EF0000E948E0780ED92E00E94F5068091DC0121
:103F00001F928F938DEC92E09F938F930E948E0768
:103F10008AEC92E00E94F5068DB79EB74C960FB6DC
:103F2000F8949EBF0FBE8DBF8DED91E00E94100FE3
:103F30000E94FF1C9093DA018093D90108951F938A
:103F4000CF93DF938091D9019091DA010E94171DE0
:103F5000AC019091DB01992321F02091060130E022
:103F600006C0209107018AE0289F90011124421782
:103F7000530708F47BC08091DF01C091E001D0912C
:103F8000E1011091E201811107C0C1116BC0D11193
:103F900069C0111167C06AC09F3F19F09F5F90937D
:103FA000DB01181624F40E94A31D8093DF01809189
:103FB000DF0187FF05C00E94A31D81958093DF016B
:103FC0001C1624F40E94A31D8093E0018091E0015F
:103FD00087FF05C00E94A31D81958093E001309169
:103FE000DF013323E1F02091E0012223C1F045EB12
:103FF0003403C0011124992319F09093DF0103C009
:1040000081E08093DF0135EB2303C0011124992364
:1040100019F09093E00103C081E08093E0011D1648
:1040200024F40E94EC1D8093E1018091E10187FF5F
:1040300005C00E94EC1D81958093E101111624F4C6
:104040000E94EC1D8093E2018091E20187FF05C090
:104050000E94EC1D81958093E201DF91CF911F9129
:104060000C94121F9F3F09F099CFAACFDF91CF91F7
:104070001F910895EDEDF1E086E0DF011D928A9534
:10408000E9F71092DB011092DC01089584E195E0DC
:104090000E94F5061F9281E08F931F9285E08F9317
:1040A00086EC94E09F938F930E948E070F900F9061
:1040B0000F900F900F900F9008958330E9F128F43E
:1040C000813061F0823009F10895853009F462C0D1
:1040D00008F449C0863009F474C00895809107013E
:1040E000262F30E0280F311D2F3F310524F4680FB3
:1040F0006093070103C08FEF809307018091070150
:104100001F928F938FEF93E072C080910601262F4C
:1041100030E0280F311D2F3F310524F4680F6093E4
:10412000060103C08FEF80930601809106011F9264
:104130008F938DEE93E05BC080910501262F30E0D8
:10414000280F311D2F3F310524F4680F60930501BE
:1041500003C08FEF80930501809105011F928F931B
:104160008AED93E044C080910401262F30E0280FAF
:10417000311D2F3F310524F4680F6093040103C003
:104180008FEF80930401809104011F928F9385EC3F
:1041900093E02DC080910301262F30E0280F311DC0
:1041A0002F3F310524F4680F6093030103C08FEFA4
:1041B00080930301809103011F928F938CEA93E017
:1041C00016C080910201262F30E0280F311D2F3FAD
:1041D000310524F4680F6093020103C08FEF8093D0
:1041E0000201809102011F928F9381E993E09F93D6
:1041F0008F930E948E070F900F900F900F9008954D
:10420000833081F128F4813059F08230D1F0089563
:10421000853009F449C0B8F1863009F456C00895D4
:1042200080910701681720F4861B8093070102C064
:1042300010920701809107011F928F9382E893E00B
:1042400054C080910601681720F4861B80930601F4
:1042500002C010920601809106011F928F9380E7A1
:1042600093E043C080910501681720F4861B80937A
:10427000050102C010920501809105011F928F93E4
:104280008DE593E032C080910401681720F4861B0D
:104290008093040102C010920401809104011F92D6
:1042A0008F9388E493E021C080910301681720F484
:1042B000861B8093030102C01092030180910301C9
:1042C0001F928F938FE293E010C0809102016817D4
:1042D00020F4861B8093020102C01092020180919B
:1042E00002011F928F9384E193E09F938F930E942A
:1042F0008E070F900F900F900F900895CF93C82FB7
:104300001F928F9389E196E09F938F930E948E076F
:1043100081E090E0A0E0B0E0BC01CD0104C0660FF8
:10432000771F881F991FCA95D2F70E94DE180F9039
:104330000F900F900F90CF910C94D114CF93DF93E7
:104340008B3109F4F9C108F08FC18B3009F4B2C187
:1043500008F065C1863009F4B0C120F4853009F455
:10436000BEC16CC2873009F4CCC1883009F066C286
:1043700084E89BE00E94F50685ED9AE00E94F50630
:104380000E94A41B1F928F9382ED9AE09F938F93BC
:104390000E948E0780ED9AE00E94F5060E94A01B05
:1043A000C82F8DEB9AE00E94F5061F92CF9388EB01
:1043B0009AE09F938F930E948E0786EB9AE00E946B
:1043C000F5068CEA9AE00E94F5068C2F81701F9208
:1043D0008F9389EA9AE09F938F930E948E0787EAD2
:1043E0009AE00E94F5068DE99AE00E94F506C1FB6D
:1043F000882780F91F928F938AE99AE09F938F9381
:104400000E948E0788E99AE00E94F5068CE89AE0FF
:104410000E94F506C2FB882780F91F928F9389E8D6
:104420009AE09F938F930E948E0787E89AE00E94FC
:10443000F5068EE79AE00E94F506C3FBCC27C0F98B
:104440001F92CF938BE79AE09F938F930E948E07E2
:1044500089E79AE00E94F5060E94A81BEC0185E618
:104460009AE00E94F506DF93CF9380E69AE09F934F
:104470008F930E948E078EE59AE00E94F50685E4F0
:104480009AE00E94F5068C2F81701F928F9382E430
:104490009AE09F938F930E948E078DB79EB7809668
:1044A0000FB6F8949EBF0FBE8DBF80E49AE00E94C5
:1044B000F50689E29AE00E94F506C1FB882780F99B
:1044C0001F928F9386E29AE09F938F930E948E07AC
:1044D00084E29AE00E94F50682E19AE00E94F506E5
:1044E0008D2F81701F928F938FE09AE09F938F930F
:1044F0000E948E078DE09AE00E94F5068BEF99E00E
:104500000E94F506D695D1701F92DF9388EF99E04F
:104510009F938F930E948E0786EF99E00E94F50685
:1045200084EE99E00E94F506C2FB882780F91F926D
:104530008F9381EE99E09F938F930E948E078FED6A
:1045400099E00E94F5068DEC99E00E94F506C3FB08
:10455000882780F91F928F938AEC99E09F938F931D
:104560000E948E0788EC99E00E94F5068EEB99E098
:104570000E94F506C4FB882780F91F928F938BEB6E
:1045800099E09F938F930E948E0789EB99E00E9498
:10459000F50687EA99E00E94F506C5FB882780F9B1
:1045A0001F928F9384EA99E09F938F930E948E07C6
:1045B00082EA99E00E94F50686E899E00E94F506F5
:1045C000C6FB882780F91F928F9383E899E09F9319
:1045D0008F930E948E078DB79EB780960FB6F89482
:1045E0009EBF0FBE8DBF81E899E00E94F50689E766
:1045F00099E00E94F506C7FBCC27C0F91F92CF9324
:1046000086E799E09F938F930E948E0784E799E055
:104610000E94F5060F900F900F900F9049C08031C7
:1046200009F4B4C020F48E3009F49AC007C1863171
:1046300009F4C7C0893109F001C18BE997E00E94F4
:10464000F50689E697E00E94F5068FE297E00E9462
:10465000F50688EE96E00E94F50682EB96E00E9451
:10466000F50687E896E08FC08A32E1F060F4873281
:1046700009F4E0C028F48E3108F4E0C08D51DBC0AD
:10468000893269F1DBC0833448F48A3308F0D0C042
:10469000853309F4CFC0883369F0D0C0833409F47E
:1046A000C9C0CCC083E79BE00E94F5060E94351C80
:1046B000C1E0C9C081ED97E066C08091D701817FDC
:1046C0008E7F8093D7018AEA97E00E94F5068FE6F5
:1046D0009BE00E94F50681E08093E401E9CF0E940F
:1046E000D11483E59BE00E94F5069FEF23ED80E364
:1046F000915020408040E1F700C000000E94671DFB
:10470000D7CF8091D701C82FC095C170C0FB80F969
:104710008093D701CC2329F087E49BE00E94F50623
:1047200092C08AE39BE00E94F5068091D701897FC1
:10473000877F8093D701BCCF9091D70191FBCC2785
:10474000C0F981E0C827892FC0FB81F98093D70188
:10475000CC2319F08DE29BE029C08FE19BE013C0D0
:104760009091D70192FBCC27C0F981E0C827892F0F
:10477000C0FB82F98093D701CC2319F080E19BE044
:1047800015C080E09BE00E94F50692CF9091D70182
:1047900093FBCC27C0F981E0C827892FC0FB83F9A0
:1047A0008093D701CC2351F084EF9AE00E94F50664
:1047B0008091D70181608093D70145C087EE9AE050
:1047C000E2CF89E796E00E94F5060E94BB0E1F9299
:1047D0008F938FE596E09F938F930E948E07809131
:1047E00012011F928F9388E496E09F938F930E940B
:1047F0008E078091F1011F928F9385E396E09F933E
:104800008F930E948E070E940B1D9F938F937F931F
:104810006F938EE196E09F938F930E948E078DB7E2
:104820009EB742960FB6F8949EBF0FBE8DBF40CF85
:10483000895301C080E00E947E213ACF85EE9AE044
:104840000E94F506C0E08C2FDF91CF91089580E0A3
:1048500008950C9427248E518A3030F4E82FF0E02C
:10486000EB5DFE4F8081089580E00895CF93C82FBF
:104870008091E401813059F020F0823009F445C084
:1048800039C10E94B41A823209F036C104C00E94B4
:10489000B41A823261F48C2F0E942924811104C041
:1048A0008C2F0E949E212FC081E090E02CC08C2F85
:1048B0000E942724811126C0C431E1F070F4CB306E
:1048C00081F0C031D1F40E94462081E196E00E943F
:1048D000F50682E08093E40115C0C93259F0C8336F
:1048E00061F48AEA97E00E94F50685E196E00E946D
:1048F000F50608C01092E40101C18FE096E00E9425
:10490000F506FCC081E08170FBC0C43228F5CE31D1
:1049100008F0C1C0CB30A1F1D0F4C73009F0D0C04D
:104920008EE18093070182E3809306018AE0809301
:10493000050184E18093040188E08093030188E20B
:104940008093020185EB94E00E94F506BCC0C33160
:1049500049F1C431C1F0B4C0CB3409F4A6C028F485
:10496000C93289F0C83361F0ABC0C13509F49BC0CE
:10497000C23509F496C0CE3409F0A2C06AE09BC0EB
:104980000E944620A0C08091E301882319F0109274
:10499000E30199C082EC94E00E94F50681E08093E7
:1049A000E401AEC08CE994E00E94F5068AE894E048
:1049B0000E94F506809107011F928F9387E894E08B
:1049C0009F938F930E948E0785E894E00E94F506DE
:1049D00083E794E00E94F506809106011F928F9371
:1049E00080E794E09F938F930E948E078EE694E079
:1049F0000E94F5068FE594E00E94F506809105017E
:104A00001F928F938CE594E09F938F930E948E0763
:104A10008AE594E00E94F50689E494E00E94F50698
:104A2000809104011F928F9386E494E09F938F936B
:104A30000E948E0784E494E00E94F5068FE294E0E1
:104A40000E94F506809103011F928F938CE294E0FF
:104A50009F938F930E948E078AE294E00E94F5064E
:104A600083E194E00E94F506809102011F928F93EA
:104A700080E194E09F938F930E948E078EE094E0F4
:104A80000E94F5068DB79EB748960FB6F8949EBF64
:104A90000FBE8DBF18C08C2F0E942B248093E30182
:104AA00012C061E003C061E006C06AE08091E301EA
:104AB0000E945D2008C08091E3010E94002103C094
:104AC00083EB94E013C08091E301882369F01F9287
:104AD0008F938DEA94E09F938F930E948E070F909F
:104AE0000F900F900F9004C08AEA94E00E94F506A0
:104AF00081E006C01092E40180E002C080E003CFB4
:104B0000CF9108958091F00108959FB7F894109285
:104B1000E7019FBF9091FF01943009F057C0909139
:104B2000E9009F703091EC00232F217030FD20E8C8
:104B3000922B23E02093E9002091EB0020FF43C05B
:104B40002091EE0027FF3FC02091E501222321F0B4
:104B50002091E80025FF37C01092E50126E0309152
:104B6000E80035FD15C03091FF01343061F530911A
:104B7000EB0035FD28C0215021F481E08093E50150
:104B800022C0EFE9FFE03197F1F700C00000E7CF66
:104B90008093F1008091E80085FD0AC08091E800D3
:104BA00080FFFCCF8091E8008E778093E80006C0FC
:104BB0008FB7F89421E02093E7018FBF9F70909307
:104BC000E90080E008959F709093E9008FEF0895C9
:104BD0000F931F93CF93DF9300D01F92CDB7DEB713
:104BE0008C010E94A128823011F0843021F584E0EC
:104BF00089831B830A8382E08093E9008FEF909181
:104C0000E800815095FD06C095ED9A95F1F70000FA
:104C10008111F5CF8091E80085FF0DC040E050E0A4
:104C200063E070E0CE0101960E94BE288091E8000A
:104C30008E778093E8000F900F900F90DF91CF91C7
:104C40001F910F910895CF93DF9300D01F92CDB79E
:104C5000DEB72091FF01243031F523E0298380580D
:104C600091099B838A8382E08093E9008FEF909182
:104C7000E800815095FD06C095ED9A95F1F700008A
:104C80008111F5CF8091E80085FF0DC040E050E034
:104C900063E070E0CE0101960E94BE288091E8009A
:104CA0008E778093E8000F900F900F90DF91CF9157
:104CB0000895CF93DF93EC010E94A128823011F078
:104CC0008430F9F482E08093E9008FEF9091E8005E
:104CD000815095FD06C095ED9A95F1F70000811180
:104CE000F5CF8091E80085FF0CC040E050E066E021
:104CF00070E0CE010E94BE288091E8008E778093FC
:104D0000E800DF91CF910895CF93DF93EC010E94EB
:104D1000A128823011F0843039F581E08093E900D8
:104D20008FEF9091E800815095FD06C095ED9A9522
:104D3000F1F700008111F5CF8091E80085FF14C0E4
:104D400040E050E068E070E0CE010E94BE28809113
:104D5000E8008E778093E80088E0FE01A8EEB1E0DD
:104D600001900D928A95E1F7DF91CF91089584EB40
:104D70009BE00E94F5068091FE01811109C00E940E
:104D80004F2A0E94AC2A8091E20084608093E20066
:104D9000089580EB9BE00E94F5061092FE010895B5
:104DA0008CEA9BE00C94F50688EA9BE00C94F506EF
:104DB00084EA9BE00E94F5060C94C51C2091E60154
:104DC0002F5F822F62E30E945B2D992319F02093BD
:104DD000E60108951092E6018091E701882371F1C0
:104DE0008091FF01843041F58091E9008F7020911E
:104DF000EC00922F917020FD90E8892B93E0909326
:104E0000E9009091EB0090FF14C09091EE0097FFA5
:104E100010C09091E80095FF03C01092F100F9CF07
:104E20009091E80090FF05C09091E8009E779093E4
:104E3000E8008F708093E9001092E701089542E046
:104E400061EC81E00E94C82942E261EC82E00E94AC
:104E5000C82942E261EC83E00C94C82980910102E8
:104E6000833009F460C030F4813071F0823009F48D
:104E700099C008958A3009F485C08B3009F46BC05D
:104E8000893009F0A7C020C080910002813A09F062
:104E9000A1C08091E800877F8093E80080910402A0
:104EA00090910502892B21F468E088EE91E003C01F
:104EB00060E080E090E070E00E9409298091E800C5
:104EC0008B778093E800089580910002813209F089
:104ED00081C08091040290910502029708F07AC087
:104EE0008091E800877F8093E8008091E80082FD50
:104EF00005C08091FF018111F8CF6CC02091F300B3
:104F00008091F20090E0922B029729F48091F100B9
:104F10008B7F813021F48091F1008093F0018091AA
:104F2000E8008B7753C080910002813A09F052C0AB
:104F30008091040290910502892B09F04BC0809169
:104F4000E800877F8093E8008091E80080FFFCCF35
:104F50008091120136C0809100028132D9F5809192
:104F6000040290910502892BA9F58091E800877FC2
:104F70008093E8000E94FD29809102028093120133
:104F80000C94D11480910002813221F58091E800C7
:104F9000877F8093E8000E94FD298091030280931F
:104FA000F101089580910002813AA1F48091E80016
:104FB000877F8093E8008091E80080FFFCCF80919C
:104FC000F1018093F1008091E8008E778093E800F2
:104FD0000C94FD29089584B7877F84BF0FB6F89499
:104FE000A8958091600088618093600010926000B5
:104FF0000FBE80E880936100109261000E945A0FFA
:105000000E944F2A0E94AC2A8091E2008460809323
:10501000E20085E895E20E94651B78940E94402D8D
:105020000E94620F88E091E00E94B60E83E99BE047
:105030000E94F5068091FF01853089F48FE89BE09E
:105040000E94F5060E94931C8091FD01882391F334
:105050000E947A1C882371F30E94A828EBCF0E943B
:10506000920FE8CF0C943428292F332723303105B1
:10507000C9F060F42130310581F02230310509F0AA
:1050800047C08BE590E02CEE3BE046C02132310575
:1050900011F12232310561F13BC082E190E027E459
:1050A0003CE03AC099278130910561F040F08230B0
:1050B000910559F0039761F5E8EBFBE008C0E8EED5
:1050C000FBE005C0E4EDFBE002C0EEEBFBE0849109
:1050D00090E09F0121C063307105D0F4660F771F07
:1050E000FB01E85CFE4F2081318189E090E014C033
:1050F0006330710568F4FB01EE0FFF1FEE5CFE4F9D
:1051000020813181FB01E15DFE4F808190E004C090
:1051100080E090E020E030E0FA01318320830895C0
:105120000895CF93C82F0E949028C093F201CF9189
:1051300008958091FF01843011F081E0089582E0AC
:1051400008958091F201811102C00C94992808956C
:1051500080E189BD82E189BD09B400FEFDCF809167
:10516000D8008F7D8093D8008091E000826080938A
:10517000E0008091E00081FDFCCF0895CF92DF92A6
:10518000EF92FF920F931F93CF93DF93EC018B016C
:105190007A010E941C2A811133C0E114F10439F014
:1051A000F70180819181081B190BC80FD91FC12CF1
:1051B000D12C0115110519F18091E80085FD16C06B
:1051C0008091E8008E778093E800E114F10449F0C3
:1051D000F70180819181C80ED91ED182C08285E0FD
:1051E0000FC00E941C2A882321F30AC08991809352
:1051F000F10001501109FFEFCF1ADF0ADACF80E08A
:10520000DF91CF911F910F91FF90EF90DF90CF90A2
:10521000089520910602309107022617370748F0BB
:105220006115710539F42091E8002E772093E8008C
:1052300001C0B901FC0120E06115710579F180918F
:10524000FF018823F1F18530F1F18091E80083FDC1
:105250003CC08091E80082FD2EC08091E80080FF74
:10526000EBCF2091F3008091F20090E0922B61153A
:10527000710551F08830910538F421912093F100A7
:10528000615071090196F3CF21E0089709F020E001
:105290008091E8008E778093E800CECF2111CFCFA8
:1052A0000AC08091FF01882361F0853061F0809110
:1052B000E80083FD0AC08091E80082FFF2CF80E021
:1052C000089582E0089583E0089581E00895209193
:1052D0000602309107022617370748F0611571055D
:1052E00039F42091E8002E772093E80001C0B9013D
:1052F000FC0120E06115710591F18091FF01882387
:1053000009F440C0853009F43FC08091E80083FD76
:105310003DC08091E80082FD2FC08091E80080FFB1
:10532000E9CF2091F3008091F20090E0922B61157B
:10533000710559F08830910540F424912093F100D3
:105340003196615071090196F2CF21E0089709F07A
:1053500020E08091E8008E778093E800CBCF211188
:10536000CCCF0AC08091FF01882361F0853061F0C5
:105370008091E80083FD0AC08091E80082FFF2CFAF
:1053800080E0089582E0089583E0089581E0089523
:10539000982F973068F59093E900981739F070913D
:1053A000EC002091ED005091F00003C0242F762FE7
:1053B00050E021FD02C09F5FECCF3091EB003E7FBB
:1053C0003093EB003091ED003D7F3093ED00309154
:1053D000EB0031603093EB007093EC002093ED0014
:1053E0005093F0002091EE0027FDE5CF80E0089576
:1053F0008F708093E90081E008958091000287FF1B
:1054000011C08091E80082FD05C08091FF018111EB
:10541000F8CF11C08091E8008B770BC08091FF011D
:10542000882349F08091E80080FFF8CF8091E80060
:105430008E778093E80008952091E4003091E50094
:1054400095E64091EC00842F817040FF23C080914D
:10545000E80080FD1DC08091FF01882399F0853010
:1054600099F08091EB0085FD11C04091E4005091CE
:10547000E5002417350729F3915011F09A01E1CF87
:1054800084E0089582E0089583E0089581E008951E
:1054900080E008954091E80042FFDDCF08950E942A
:1054A000BD2A0E94C52AE0EEF0E080818160808301
:1054B000E8EDF0E080818F77808319BCA7EDB0E044
:1054C0008C918E7F8C9380818F7E80831092FE01E1
:1054D00008950F931F93CF93DF930E94BD2A0E94DC
:1054E000C52AC8EDD0E088818F778883888180685D
:1054F000888388818F7D888319BC1092FF01109268
:10550000FB011092FD011092FC0100EE10E0F80189
:1055100080818B7F808388818160888342E060E026
:1055200080E00E94C829E1EEF0E080818E7F8083D8
:10553000E2EEF0E0808181608083808188608083FA
:10554000F80180818E7F8083888180618883DF91EC
:10555000CF911F910F910895E8EDF0E080818F7E4B
:105560008083E7EDF0E080818160808384E082BF0A
:1055700081E08093FE010C94692AE8EDF0E08081DF
:105580008E7F80831092E20008951092DA001092CC
:10559000E10008951F920F920FB60F9211242F93DE
:1055A0003F934F935F936F937F938F939F93AF93AB
:1055B000BF93EF93FF938091E10082FF0BC0809136
:1055C000E20082FF07C08091E1008B7F8093E100C1
:1055D0000E94DE268091DA0080FF1FC08091D800F3
:1055E00080FF1BC08091DA008E7F8093DA0080916B
:1055F000D90080FF0DC080E189BD82E189BD09B479
:1056000000FEFDCF81E08093FF010E94B72605C018
:1056100019BC1092FF010E94C9268091E10080FF11
:1056200019C08091E20080FF15C08091E2008E7F5A
:105630008093E2008091E20080618093E20080919B
:10564000D80080628093D80019BC85E08093FF0168
:105650000E94D4268091E10084FF30C08091E20056
:1056600084FF2CC080E189BD82E189BD09B400FEC0
:10567000FDCF8091D8008F7D8093D8008091E1008C
:105680008F7E8093E1008091E2008F7E8093E20024
:105690008091E20081608093E2008091FB01882389
:1056A00011F084E007C08091E30087FD02C081E033
:1056B00001C083E08093FF010E94D8268091E10021
:1056C00083FF29C08091E20083FF25C08091E10023
:1056D000877F8093E10082E08093FF011092FB01BD
:1056E0008091E1008E7F8093E1008091E2008E7FC7
:1056F0008093E2008091E20080618093E20042E0CA
:1057000060E080E00E94C8298091F000886080936A
:10571000F0000E94D026FF91EF91BF91AF919F9131
:105720008F917F916F915F914F913F912F910F904A
:105730000FBE0F901F9018951F920F920FB60F92E9
:1057400011242F933F934F935F936F937F938F9386
:105750009F93AF93BF93CF93DF93EF93FF93C0914A
:10576000E900CF708091EC00D82FD17080FDD0E897
:105770001092E9008091F000877F8093F000789488
:105780000E94E02B1092E9008091F00088608093E5
:10579000F000CD2BCF70C093E900FF91EF91DF9126
:1057A000CF91BF91AF919F918F917F916F915F91B9
:1057B0004F913F912F910F900FBE0F901F90189512
:1057C0001F93CF93DF93CDB7DEB7AA970FB6F894A8
:1057D000DEBF0FBECDBFE0E0F2E08091F10081932B
:1057E00022E0E830F207C9F70E942E278091E800F6
:1057F00083FF2EC18091000290910102492F50E059
:105800004A30510508F024C1FA01EC58FF4F0C94BE
:105810007B2D803821F0823809F01AC108C08091B0
:10582000FC019091FD01992389F082600FC0809165
:1058300004028F70873008F00BC18093E9008091DB
:10584000EB0085FB882780F91092E9009091E80031
:10585000977F9093E8008093F1001092F100D1C0FF
:10586000282F2D7F09F0F4C0882319F0823061F0D1
:10587000EFC080910202813009F0EAC0933009F054
:1058800080E08093FD012EC08091020281112AC028
:10589000809104028F702FEF280F263008F0D8C0B7
:1058A0008093E9002091EB0020FF1CC0933021F48D
:1058B0008091EB00806214C09091EB009061909316
:1058C000EB0021E030E0A90102C0440F551F8A958A
:1058D000E2F74093EA001092EA008091EB008860C2
:1058E0008093EB001092E9008091E800877F80931D
:1058F000E8000E94FD29ACC08111AAC010910202EB
:105900001F778091E3008078812B8093E300809162
:10591000E800877F8093E8000E94FD298091E800DD
:1059200080FFFCCF8091E30080688093E300111139
:1059300002C082E001C083E08093FF0189C08058EB
:10594000823008F085C080910202909103028C3D64
:1059500053E0950779F583E08A838AE289834FB71C
:10596000F894DE01139620E03EE051E2E32FF0E0F0
:1059700050935700E49120FF03C0E295EF703F5F22
:10598000EF708E2F90E0EA3010F0C79601C0C096FD
:105990008D939D932F5F243149F74FBF8091E8008D
:1059A000877F8093E8006AE270E0CE0101960E9452
:1059B000092916C06091040270910502AE014F5F83
:1059C0005F4F0E943228BC01892B09F441C090919D
:1059D000E800977F9093E80089819A810E94672967
:1059E0008091E8008B778093E80032C0803881F5A1
:1059F0008091E800877F8093E8008091FB0180938D
:105A0000F1008091E8008E7772CF811121C08091E2
:105A100002029091030299270297D4F48091E80042
:105A2000877F8093E800809102028093FB010E94AF
:105A3000FD298091FB01811106C08091E30087FD63
:105A400002C081E001C084E08093FF010E941F2713
:105A50008091E80083FF0AC08091E800877F8093EF
:105A6000E8008091EB0080628093EB00AA960FB66D
:105A7000F894DEBF0FBECDBFDF91CF911F91089587
:105A8000CF938091FF018823A1F0C091E900CF70EE
:105A90009091EC00892F817090FD80E8C82B1092C6
:105AA000E9008091E80083FD0E94E02BCF70C09355
:105AB000E900CF910895991B79E004C0991F9617CA
:105AC00008F0961B881F7A95C9F78095089597FB73
:105AD000072E16F4009407D077FD09D00E94812D7F
