:100000000C94AC040C94F3040C94F3040C94F304DB
:100010000C94F3040C94F3040C94F3040C94F30484
:100020000C94F3040C94F3040C94E31E0C94B61F8C
:100030000C944F160C94F3040C94F3040C94F304F6
:100040000C94F3040C94F3040C94F3040C94F30454
:100050000C94F3040C94B7160C94F3040C94F3046E
:100060000C94F3040C94F3040C94F3040C94F30434
:100070000C94F3040C94F3040C94F3040C94F30424
:100080000C94F3040C94F3040C94F3040C94F30414
:100090000C94F3040C94F3040C94F3040C94F30404
:1000A0000C94F3040C94F3040C94F3040100290061
:1000B00014001A000800150017001C0018000C009E
:1000C000120013002F002A000100E00004001600B7
:1000D000070009000A000B000D000E000F0033009E
:1000E000340030000100E1001D001B000600190073
:1000F000050011001000360037003800E10028002C
:100100000100E300025100000000000000002C008C
:10011000000000000000E600E4000151010035008D
:100120001E001F00200021002200230024002500C3
:10013000260027002D004C000100010001000100F5
:100140000100010001000100010001000100500058
:100150004F002E000100010001000100010001001C
:100160000100010001000100010051000100310007
:10017000010001000100000000000000000001007B
:1001800000000000000001000100010001003A0031
:100190003B003C003D003E003F004000410042006B
:1001A000430044004500007001000100010001000F
:1001B0000100010001000100010001000100010037
:1001C0000100010001000100010001000100010027
:1001D0000100010001000100010001000100010017
:1001E000010001000100000000000000000001000B
:1001F00000000000000001000100010001000100FA
:1002000001000100010001000100010001000100E6
:1002100001000100010001000100010001000100D6
:1002200001000100010001000100010001000100C6
:1002300001000100010001000100010001000100B6
:1002400001000100010001000100010001000100A6
:10025000010001000100000000000000000001009A
:100260000000000000000100010001000100010089
:100270000100010001000100010001000100010076
:100280000100010001000100010001000100010066
:100290000100010001000100010001000100010056
:1002A0000100010001000100010001000100010046
:1002B0000100010001000100010001000100010036
:1002C000010001000100000000000000000001002A
:1002D0000000000000000100010001000100010019
:1002E0000100010001000100010001000100010006
:1002F00001000100010001000100010001000100F6
:1003000001000100010001000100010001000100E5
:1003100001000100010001000100010001000100D5
:1003200001000100010001000100010001000100C5
:1003300001000100010000000000000000000100B9
:1003400000000000000001000100010001000100A8
:100350000100010001000100010001000100010095
:100360000100010001000100010001000100010085
:100370000100010001000100010001000100010075
:100380000100010001000100010001000100010065
:100390000100010001000100010001000100010055
:1003A0000100010001000000000000000000010049
:1003B0000000000000000100010001000100010038
:1003C0000100010001000100010001000100010025
:1003D0000100010001000100010001000100010015
:1003E0000100010001000100010001000100010005
:1003F00001000100010001000100010001000100F5
:1004000001000100010001000100010001000100E4
:1004100001000100010000000000000000000100D8
:1004200000000000000001000100010001000100C7
:1004300001000100010001000100010001000100B4
:1004400001000100010001000100010001000100A4
:100450000100010001000100010001000100010094
:100460000100010001000100010001000100010084
:100470000100010001000100010001000100010074
:100480000100010001000000000000000000010068
:100490000000000000000100010001000100010057
:1004A0000100010001000100010001000100010044
:1004B0000100010001000100010001000100010034
:1004C0000100010001000100010001000100010024
:1004D0000100010001000100010001000100010014
:1004E0000100010001000100010001000100010004
:1004F00001000100010000000000000000000100F8
:1005000000000000000001000100010001000100E6
:1005100001000100010001000100010001000100D3
:1005200001000100010001000100010001000100C3
:1005300001000100010001000100010001000100B3
:1005400001000100010001000100010001000100A3
:100550000100010001000100010001000100010093
:100560000100010001000000000000000000010087
:100570000000000000000100010001000100010076
:100580000100010001000100010001000100010063
:100590000100010001000100010001000100010053
:1005A0000100010001000100010001000100010043
:1005B0000100010001000100010001000100010033
:1005C0000100010001000100010001000100010023
:1005D0000100010001000000000000000000010017
:1005E0000000000000000100010001000100010006
:1005F00001000100010001000100010001000100F3
:1006000001000100010001000100010001000100E2
:1006100001000100010001000100010001000100D2
:1006200001000100010001000100010001000100C2
:1006300001000100010001000100010001000100B2
:1006400001000100010000000000000000000100A6
:100650000000000000000100010001000100010095
:100660000100010001000100010001000100010082
:100670000100010001000100010001000100010072
:100680000100010001000100010001000100010062
:100690000100010001000100010001000100010052
:1006A0000100010001000100010001000100010042
:1006B0000100010001000000000000000000010036
:1006C0000000000000000100010001000100010025
:1006D0000100010001000100010001000100010012
:1006E0000100010001000100010001000100010002
:1006F00001000100010001000100010001000100F2
:1007000001000100010001000100010001000100E1
:1007100001000100010001000100010001000100D1
:1007200001000100010000000000000000000100C5
:1007300000000000000001000100010001000100B4
:1007400001000100010001000100010001000100A1
:100750000100010001000100010001000100010091
:100760000100010001000100010001000100010081
:100770000100010001000100010001000100010071
:100780000100010001000100010001000100010061
:100790000100010001000000000000000000010055
:1007A00000000000000001000100010012036B00C6
:1007B0006500790062006F00610072006400000053
:1007C000160371006D006B006200750069006C001B
:1007D00064006500720000000403090409026D0052
:1007E000040100A0FA09040000010301010009212D
:1007F000110100012240000705810308000A0904D5
:1008000001000103010200092111010001224D0034
:100810000705820308000A09040200010300000022
:100820000921110100012236000705830308000A8F
:100830000904030001030000000921110100012245
:100840003900070584032000011201100100000097
:1008500008EDFE606001000102000105010906A12A
:1008600001050719E029E7150025019508750181A3
:100870000205081901290595057501910295017573
:100880000391010507190029F71500250195F87551
:10089000018102C005010980A1018502160100261F
:1008A00003001A81002A8300751095018100C0059C
:1008B0000C0901A1018503160100269C021A010002
:1008C0002A9C02751095018100C005010902A10151
:1008D0000901A10005091901290515002501950542
:1008E0007501810295017503810105010930093106
:1008F0001581257F95027508810609381581257FA8
:10090000950175088106050C0A38021581257F9529
:100910000175088106C0C005010906A10105071976
:10092000E029E715002501950875018102950175FB
:1009300008810105081901290595057501910295A0
:1009400001750391010507190029FF150026FF0015
:10095000950675088100C00011241FBECFEFDAE0B4
:10096000DEBFCDBF04B603FE27C080913702909151
:100970003802A0913902B0913A028730904BA740DB
:10098000B04BD1F410923702109238021092390213
:1009900010923A0214BE84B7877F84BF0FB6F894D2
:1009A000A89580916000886180936000109260003B
:1009B0000FBEE0E0F8E3099511E0A0E0B1E0E4EF5C
:1009C000F5E402C005900D92AA33B107D9F722E0F1
:1009D000AAE3B1E001C01D92A733B207E1F70E947C
:1009E000321C0C94F8220C94000090E080E00895F2
:1009F0000895089581E00895089581E008950C9484
:100A0000FA040E94C80E2FEF84E39CE0215080403E
:100A10009040E1F700C000000C94DC16FF920F93A9
:100A20001F93CF93DF938C01FC01C081D181809112
:100A30006E0181113FC082818823B9F1CE010E94ED
:100A40002F14F82E682FCE010E94D513BE018F2DD2
:100A50000E945506EC01B8010E94FF04882309F4A6
:100A60004AC0B801CE010E946508882309F443C03A
:100A7000C531F0E7DF0718F5C23080E7D80708F086
:100A80004BC0C115E0E7DE0789F1C130D047D1F195
:100A900081E080933C0180933D01C801DF91CF91BB
:100AA0001F910F91FF900C94FD04CE010E9404143D
:100AB000F82ECCCFCE010E942F14BE01C9CFCC336B
:100AC00080E7D80709F4ACC0CD33D04709F7F80167
:100AD0008281882309F4CBC010923D010E948116C7
:100AE00090933B0180933A0180E2A7C0F801828194
:100AF00081110E94010580E0DF91CF911F910F913C
:100B0000FF900895F80182818823A9F38091F7016D
:100B100081608093F701EFCFF8018281882309F487
:100B2000BCCF0E94E015811102C00E94C6150E9430
:100B3000FD1590E09093290280932802FE01E35076
:100B4000F047809128028160E231F105C8F4E55553
:100B5000FA4F0C94A822BD05C905CD05D105D505D0
:100B6000D905DD05E105E505E905ED05F105F50525
:100B7000F905FD0501060506090680912802826037
:100B800080932802809128020E9401160E94C80EBC
:100B9000B2CF809128028460F3CF809128028860D0
:100BA000EFCF809128028061EBCF80912802806294
:100BB000E7CF809128028064E3CF8091280280688B
:100BC000DFCF809128028460EACF809128028E7F57
:100BD000D7CF809128028D7FD3CF809128028B7F41
:100BE000CFCF80912802877FCBCF809128028F7E44
:100BF000C7CF809128028F7DC3CF809128028F7B41
:100C0000BFCF809128028F77BBCF809128028B7F46
:100C1000EACF90912802892F97FB87F98058B0CFAF
:100C2000F8018281882361F010923C010E948116B4
:100C300090933B0180933A0182E00E94520C5BCF7B
:100C400080913C0181110FC080913A0190913B014C
:100C50000E948D16883C910530F486E20E94270B95
:100C600086E20E94030C82E00E94590C44CF8091DE
:100C70003D0181110FC080913A0190913B010E948A
:100C80008D16883C910530F487E20E94270B87E29D
:100C90000E94030C80E2E8CF0C94B4080C94B608D0
:100CA0000C94FC040C9450060895972F70E02EE0ED
:100CB000929F600D711D1124FB0198E3899FE00D47
:100CC000F11D1124EE0FFF1FE455FF4F8591949104
:100CD0000895FC01EE0FFF1FE455F84F85919491A4
:100CE00008950E9455060E94E407811520E49207AA
:100CF00008F08DC0811540E3940708F0E8C0803EFD
:100D0000910508F071C0803C910508F0CCC0883A8C
:100D1000910580F4853A910508F0CAC081309105AB
:100D200009F46EC020F08430910508F069C090E0AD
:100D300080E008958D3B9105D0F7883A910509F43C
:100D400004C1893A910509F403C18A3A910509F46D
:100D500002C18B3A910509F401C18C3A910509F45D
:100D600000C18B3B910509F4FFC08C3B910509F450
:100D7000FEC08D3A910509F4FDC0803B910509F450
:100D8000FCC08E3A910509F4FBC08F3A910509F435
:100D9000FAC0813B910509F4F9C0823B910509F441
:100DA000F8C0833B910509F4F7C0843B910509F431
:100DB000F6C0853B910509F4F5C0863B910509F421
:100DC000F4C0873B910509F4F3C0883B910509F411
:100DD000F2C0893B910509F4F1C08A3B910509F401
:100DE000F0C080E094E408958F3F910509F048F445
:100DF000803F910508F067C0883E910508F097CFC5
:100E00000895811520E2920708F05FC008958115CA
:100E100043E5940760F5811522E5920708F062C06A
:100E2000811541E5940708F058C0811520E5920727
:100E300008F450C09C0154E0369527955A95E1F787
:100E4000922F9370482F437021E030E002C0220FB0
:100E5000331F4A95E2F73C68392B86958695837057
:100E600040E2849FC0011124822B932B08958115A9
:100E700045E5940750F4811524E5920708F446C02F
:100E8000982F8827846F906A0895811546E5940706
:100E900008F450C09C0130569F702115304108F075
:100EA00046CF90620895805C91090E94690608957A
:100EB000853A910509F443C0863A910509F042C08C
:100EC00082E890E40895906508959F70EECF992789
:100ED000906C08959F70906A0895982F8827816F6D
:100EE000906A0895AC014370552721E030E002C0BC
:100EF000220F331F4A95E2F78695869540E2849F3C
:100F0000C0011124822B932B9C680895AC0143707F
:100F1000552721E030E002C0220F331F4A95E2F747
:100F20008695869540E2849FC0011124822B932BE5
:100F30009A680895982F882788279F71B2CF81E8F3
:100F400090E4089583E890E4089582EE94E408958F
:100F500089EE94E408958AEE94E4089585EB94E490
:100F6000089586EB94E4089583EB94E4089584EB6C
:100F700094E4089587EB94E408958CEC94E4089548
:100F80008DEC94E4089583E895E408958AE895E467
:100F9000089582E995E4089584E995E4089581E24D
:100FA00096E4089583E296E4089584E296E4089531
:100FB00085E296E4089586E296E4089587E296E451
:100FC00008958AE296E41CCF8238910549F1B0F485
:100FD0008133910509F45CC048F48932910509F424
:100FE00052C08A32910509F458C00895853391059D
:100FF00009F444C08933910599F00895833E910521
:1010000031F138F4803E910591F0823E9105B1F0C6
:101010000895863E910511F1873E910541F10895AD
:10102000209128022370C9F080EE90E0089520916D
:10103000280220FF12C089E390E008952091280241
:1010400022FF0BC024FF2EC090E080E00895209185
:10105000280222FD2AC024FDF7CF089520912802FE
:1010600023FFFBCF24FDF0CF87EE90E00895209181
:10107000280223FFF0CF86EE90E008952091280209
:1010800025FD16C008952091280225FD14C008955D
:101090002091280226FD12C008952091280226FDE5
:1010A00010C0089583EE90E0089582EE90E00895D8
:1010B00089E290E0089585E390E008958AE290E067
:1010C000089581E390E0C9CF08950F931F93CF93C4
:1010D0008C01FB018281811106C0C1E08C2FCF9170
:1010E0001F910F910895C0914B01C11125C0053189
:1010F000104799F70E94640881E080934B010E9499
:10110000811690934A018093490110923E011092FA
:10111000400110923F011092420110924101109241
:101120004401109243011092460110924501109221
:10113000480110924701D2CF8091490190914A0114
:101140000E948D16883C910540F680913E01E82F63
:10115000F0E0EE0FFF1FE15CFE4F118300838F5F15
:1011600080933E01C0E0BACF0C94F8040C94F904CB
:10117000CF93DF9385B7806885BF85B7806885BFCB
:10118000A1E2B1E045E251E0C1E0D0E08D91E82F6D
:10119000E295EF70F0E061A18F709E0101C0220F17
:1011A0008A95EAF7922F9095962391A382A1822B9C
:1011B00082A34A175B0751F7A3E1B1E041E251E096
:1011C000C1E0D0E08D91E82FE295EF70F0E061A1F1
:1011D0008F709E0101C0220F8A95EAF7922F909599
:1011E000962391A382A1822B82A34A175B0751F712
:1011F000109255011092540110924D0110924C0121
:10120000109257011092560110924F0110924E0108
:1012100010925901109258011092510110925001F0
:1012200010925B0110925A011092530110925201D8
:10123000DF91CF910C944C064F925F927F928F92E8
:101240009F92AF92BF92CF92DF92EF92FF920F9355
:101250001F93CF93DF93CCE4D1E001E211E095E25C
:10126000A92E91E0B92EEE24E394F12C99249394C5
:10127000C880D98019821882D8018D918D01E82FFC
:10128000E295EF70F0E091A18F70970101C0220FFD
:101290008A95EAF7892F822B81A382A1822E8094DE
:1012A000882182A3B0EABA95F1F783E1482E81E064
:1012B000582E90E080E0D2017D912D01472F42957C
:1012C0004F7050E0DA0190967C90488159817F7090
:1012D000D70102C0AA0FBB1F7A95E2F7BD016721B3
:1012E00009F068C0B701082E02C0660F771F0A9484
:1012F000E2F7462B572B5983488301968E30910590
:10130000D1F681A1882281A282A1282B22A38881E3
:101310009981C816D90641F090925C010E9481160D
:1013200090935E0180935D012296A016B10609F0AC
:101330009FCF80915C01882351F180915D01909154
:101340005E010E948D16069710F180914C019091DC
:101350004D01909355018093540180914E019091DD
:101360004F019093570180935601809150019091C5
:1013700051019093590180935801809152019091AD
:10138000530190935B0180935A0110925C010E947B
:101390004E0681E0DF91CF911F910F91FF90EF906A
:1013A000DF90CF90BF90AF909F908F907F905F9095
:1013B0004F90089570E060E09CCFE82FF0E0EE0FD2
:1013C000FF1FEC5AFE4F80819181089508959093FC
:1013D0006401809363010895E0916301F0916401D9
:1013E000309721F00190F081E02D099480E008957C
:1013F000E0916301F0916401309721F00280F38164
:10140000E02D09940895E0916301F0916401309713
:1014100021F00480F581E02D099408952091610167
:10142000309162012817390771F09093620180931F
:101430006101E0916301F0916401309721F0068031
:10144000F781E02D0994089520915F0130916001AA
:101450002817390771F09093600180935F01E09144
:101460006301F0916401309721F00084F185E02D53
:101470000994089508950C943A0A0E9478160E94DF
:10148000B8080C9449175F926F927F928F929F9247
:10149000AF92BF92CF92DF92EF92FF920F931F9382
:1014A000CF93DF93CDB7DEB72A970FB6F894DEBFA0
:1014B0000FBECDBF0E941C0996E6A92E91E0B92E61
:1014C00010E000E088248394912C502E802F0E94FD
:1014D000DD097C01F501C190D1905F01C816D906E4
:1014E00009F45EC08091F70181FD0E94E60990E059
:1014F00080E0CE24DF243401082E02C0660C771C65
:101500000A94E2F7960126213721232B09F443C0E0
:101510008E835F82E620F72081E0EF2809F480E0E7
:1015200088870E9481168160782F9A8789874E81EB
:101530005F8168858A850E94FD0A000F111FF801EE
:10154000EA59FE4F808191816826792671826082F6
:101550000E94CC190E94EC09909165018917B9F19C
:101560000E94EC09809365012A960FB6F894DEBFBD
:101570000FBECDBFDF91CF911F910F91FF90EF90E4
:10158000DF90CF90BF90AF909F908F907F906F90A3
:101590005F900C94520601968E30910509F0ABCF06
:1015A0000F5F1F4F0430110509F08FCF8FEF898334
:1015B0008A831B820E9481168160782F9D838C8391
:1015C00049815A816B818D810E94FD0AC1CF2A9683
:1015D0000FB6F894DEBF0FBECDBFDF91CF911F9144
:1015E0000F91FF90EF90DF90CF90BF90AF909F90C2
:1015F0008F907F906F905F900895CF93DF93CDB7DA
:10160000DEB72B970FB6F894DEBF0FBECDBF4F836A
:10161000588769877A878B871E821D8285E0FE0145
:101620003796DE01119601900D928A95E1F7498176
:101630005A816B817C818D819E812B960FB6F894A7
:10164000DEBF0FBECDBFDF91CF910C947A118823FE
:1016500009F4D8C0823871F40E94EC0981FDD2C02F
:1016600089E30E94CF140E94971589E30E940C150C
:101670000C949715833859F40E94EC0980FDC2C080
:1016800083E50E94CF140E94971583E5EFCF84383D
:1016900059F40E94EC0982FDB5C087E40E94CF1482
:1016A0000E94971587E4E2CF9CEF980F913A18F4C7
:1016B0000E94CF14DDCF90E2980F983050F48770DD
:1016C00091E001C0990F8A95EAF7892F0E944E1583
:1016D000CFCF9BE5980F933070F4853A31F0863A7E
:1016E00039F083E890E00C940E0A81E890E0FBCF9B
:1016F00082E890E0F8CF98E5980F953108F082C025
:10170000883A09F440C0893A09F440C08A3A09F499
:1017100040C08B3A09F440C08C3A09F440C08B3B7E
:1017200009F440C08C3B09F440C08D3A09F440C034
:10173000803B09F440C08E3A09F440C08F3A09F466
:1017400040C0813B09F440C0823B09F440C0833B68
:1017500009F440C0843B09F440C0853B09F440C013
:10176000863B09F440C0873B09F440C0883B09F43C
:1017700040C0893B09F440C08A3B09F440C090E076
:1017800080E00C94240A82EE90E0FBCF89EE90E09A
:10179000F8CF8AEE90E0F5CF85EB90E0F2CF86EBC4
:1017A00090E0EFCF83EB90E0ECCF84EB90E0E9CFDB
:1017B00087EB90E0E6CF8CEC90E0E3CF8DEC90E00F
:1017C000E0CF83E891E0DDCF8AE891E0DACF82E9EB
:1017D00091E0D7CF84E991E0D4CF81E292E0D1CFFC
:1017E00083E292E0CECF84E292E0CBCF85E292E03A
:1017F000C8CF86E292E0C5CF87E292E0C2CF8AE20C
:1018000092E0BFCF0895882309F44BC0823871F469
:101810000E94EC0981FF45C089E30E94CF140E9419
:10182000971589E30E940C150C949715833859F489
:101830000E94EC0980FF35C083E50E94CF140E940E
:10184000971583E5EFCF843859F40E94EC0982FFA5
:1018500028C087E40E94CF140E94971587E4E2CF46
:101860009CEF980F913AF0F290E2980F983050F474
:10187000877091E001C0990F8A95EAF7892F0E943D
:101880005415D2CF9BE5980F933020F490E080E080
:101890000C940E0A885A853120F490E080E00C9474
:1018A000240A0895882321F00E944E150C94971560
:1018B0000895882321F00E9454150C9497150895DB
:1018C0008F929F92AF92BF92DF92EF92FF920F930F
:1018D0001F93CF93DF937C01D62FC72FFC01058187
:1018E00002950F70128111110E946D150E94C8148B
:1018F000D82E882371F0112321F180E28D0F8830DA
:1019000000F182E00E94B2140E94C81491E0D82E27
:10191000D926EC2FE295EF70F0E0EF56F34F0C94E0
:10192000A822A30CA30CF30CF30C350D510DD00C15
:10193000D00C5C0DD00CF40DF40D670ED00CD00C57
:10194000700ED12CE6CF0C2F0F70C07F11F00295D6
:10195000007F1123A9F0002359F080E28D0F883019
:1019600010F0D11109C0802F0E944E150E949715CA
:101970008D2F0E94270B14C0802F0E945F15F6CF79
:101980008D2F0E94030C002359F080E28D0F8830C8
:1019900010F0D11124C0802F0E9454150E94971579
:1019A000DD2009F4A4C10E94A51480FDA0C1F701A7
:1019B00012820E949F140E941913C7010E94830E75
:1019C0000E949F14DF91CF911F910F91FF90EF9094
:1019D000DF90BF90AF909F908F900C943A13802F20
:1019E0000E946515DBCFFC2FFF70BF2EC07FC03279
:1019F00019F0B29480EFB822DD2369F0D13029F1DB
:101A0000112369F1002359F0F701858180FFB0CFE0
:101A10008F70858304C0112361F0011104C08B2DE8
:101A20000E94520CBDCF8B2D0130D1F70E94811541
:101A3000B7CF011106C00E9484158B2D0E94590C4E
:101A4000AFCF013009F4ACCFF6CF112321F006302F
:101A500008F0A6CFE4CF053008F0A2CFEECF0023E8
:101A600061F38D2F0E94030C9BCF8C2F869586955A
:101A7000837069F0813009F093CF8D2F9C2F937084
:101A8000111102C090E080E00E94240A89CF8D2FBE
:101A90009C2F9370111102C090E080E00E940E0A0A
:101AA0007FCF8D2F112329F00E94D5180E94C119D4
:101AB00077CF0E943D19FACF8C2F837009F047C071
:101AC00011116ECF2D2F229526952770220F220FF0
:101AD0006D2F6F70862E912CB12CA12C022E04C07C
:101AE000880C991CAA1CBB1C0A94D2F760E070E019
:101AF000CB01D4FF0FC06FE070E080E090E004C045
:101B0000660F771F881F991F2A95D2F760957095E9
:101B100080959095C695C695C370C23051F080F4FB
:101B2000682979298A299B29C13071F00E94C21243
:101B300037CF682979298A299B290E94DE1230CF64
:101B40000E94C212C501B4010E94A61229CF869537
:101B5000112311F08C2F8170882309F421CF2D2FB0
:101B6000229526952770220F220F6D2F6F70862EDB
:101B7000912CB12CA12C022E04C0880C991CAA1CFB
:101B8000BB1C0A94D2F760E070E0CB01D4FF0FC019
:101B90006FE070E080E090E004C0660F771F881F60
:101BA000991F2A95D2F76095709580959095C69566
:101BB000C695C370C23051F080F4682979298A290A
:101BC0009B29C13071F00E949C13EACE68297929C3
:101BD0008A299B290E94B813E3CE0E949C13C50159
:101BE000B4010E948013DCCEE0E2ED0FE53108F095
:101BF00062C0F0E0E250F24F0C94A822130E130ED4
:101C0000130E130E130E130E130E130E130E130ECC
:101C1000130E130E130E130E130E130E200E2E0E94
:101C2000350E3C0E460EDF708C2F8F71112321F084
:101C30000E9419138D2FF4CE0E943A138D2FFECEE1
:101C4000112341F0053008F0ABCE8C2F8F710E942C
:101C50005F13A6CE063008F0A3CEF7CF8C2F8F717E
:101C6000112339F00E9419139BCE8C2F8F711123F1
:101C7000C9F30E943A1394CE112329F08C2F8F714F
:101C80000E9404138DCE0E94FA128ACE112349F0CD
:101C9000CF718C2F0E94191363E08C2F0E94A9141E
:101CA0007FCE81E00E94B214023008F479CE82E047
:101CB0000E94B21475CE112329F0011159CE8C2F38
:101CC0008F71D0CF0111CDCE8C2F8F71D2CF4C2FF1
:101CD0004F706D2FC7010E94F5040E94231260CE41
:101CE0004C2F4F706D2FC7010E94540659CEDF91C3
:101CF000CF911F910F91FF90EF90DF90BF90AF9029
:101D00009F908F9008950F931F93CF93DF93EC01D3
:101D1000988189812B813C81232B39F08F3F19F4E5
:101D200081E09F3F19F080E001C081E080FD17C095
:101D3000CE010E940E05882391F0688179818A8105
:101D40000E947B148C010E94D4130E949B12B80144
:101D5000CE01DF91CF911F910F910C94600CDF9118
:101D6000CF911F910F9108950E946D150E947E15CD
:101D70000E9440150E9497150E946E1A0E94C11978
:101D800090E080E00E940E0A90E080E00C94240A2B
:101D90000E945C150C94B40E0E947114E92FE29518
:101DA000EF70E250EE30E0F4F0E0E752F14F0C94C7
:101DB000A822E70EE70EF00EF00EF20EF00EF00E77
:101DC000F00EE70EE70EF70EF00EF00EF70E803F66
:101DD00019F020F4803E20F481E00895843FE1F37F
:101DE00080E00895803EC0F3813FD1F7F5CF93FBAB
:101DF000882780F90895CF93DF9300D000D01F92F9
:101E0000CDB7DEB70F900F900F900F900F90DF912E
:101E1000CF910895CF93DF9300D000D000D0CDB7FD
:101E2000DEB726960FB6F894DEBF0FBECDBFDF91AA
:101E3000CF9108951F93CF93DF93C0916F0116E068
:101E4000809170018C1304C0DF91CF911F91089590
:101E5000D0E01C9FF0011D9FF00D1124EF58FE4FA4
:101E60004081518162817381848195810E940A0F32
:101E70002196C770E5CF4091A1015091A2016091D8
:101E8000A3017091A4018091A5019091A6010C94E9
:101E90000A0F1F93CF93DF938091A601807FD1F427
:101EA0008091A3018823B1F080916F01D0917001DE
:101EB000B091A101C091A2014091A4015091A5014E
:101EC000A1E0BF3F09F0A0E0BA016095709516E06F
:101ED000D81304C0DF91CF911F91089521E04115DF
:101EE000510521F02A2FCF3F09F020E090E020FD9E
:101EF00038C0189FF001199FF00D1124EF58FE4FC4
:101F000021812C132EC020812B132BC02281211163
:101F100028C0238134812417350700F1241B350B99
:101F2000283C3105F0F42091A6012F702061209308
:101F3000A60126E0289FF001299FF00D1124EA5800
:101F4000FE4F80818F708061808381EA91E00E94E2
:101F5000830EDF91CF911F910C941A0F260F371F1C
:101F6000DFCF01968770B4CFAF92BF92CF92DF924E
:101F7000EF92FF920F931F93CF93DF93CDB7DEB70E
:101F800061970FB6F894DEBF0FBECDBF8C0185E020
:101F9000F801DE011D9601900D928A95E1F7D801B6
:101FA0004C9111965C9111971296EC903091A10191
:101FB0006091A2018091A4019091A50121E0009778
:101FC00031F06F3F19F421E03F3F09F020E0B22FDC
:101FD000B170BB2E20FD80C1F801C380D480A090D9
:101FE000A301AA2009F427C1C816D906D0F1D60149
:101FF000A81BB90BCD01FF24F394883C910508F090
:10200000F12C8091A601982F907FFF2009F4CAC07F
:10201000911187C0FE2C651329C0341327C0E1102D
:1020200025C08F7080618093A6010E943B0F81EADA
:1020300091E00E94830E8091A601F80185838F2D87
:1020400061960FB6F894DEBF0FBECDBFDF91CF9182
:102050001F910F91FF90EF90DF90CF90BF90AF90C6
:102060000895809590958C0D9D1DC5CF81E0CD285C
:1020700031F05F3F19F481E04F3F09F080E080FDCF
:1020800024C081E08E25F82FF170DF2E80FF3FC045
:1020900080916F012091700136E0821318C04D8746
:1020A0005E878D859E850E947114292F22952F7041
:1020B000223008F1243030F59F7009F1D8011596CF
:1020C0009C91907FE1F4FB2CBACF80E0DCCF90E0D4
:1020D000389FF001399FF00D1124EF58FE4F6181B8
:1020E000561306C06081461303C062816E110FC093
:1020F00001968770D2CF9F7011F0882321F3805E04
:10210000883008F3C8010E94830EBD2CDCCFEE207E
:1021100009F495CF8091A60181608093A601F12CEE
:102120008ECF651312C0341310C0E1100EC0F80139
:102130008583C8010E94830E86E0F801A1EAB1E020
:1021400001900D928A95E1F741C04D875E878D859C
:102150009E850E94CC0E882309F4C8C0EE2009F4A5
:10216000C5C08091A601803270F02091A10130910C
:10217000A20138872F831986DB86CA868C87CE0119
:1021800007960E94830E86E0F801A1EAB1E0019073
:102190000D928A95E1F70E94490F0E943B0FFF24A0
:1021A000F3944DCF911115C07C2DD98AC88A6E2D1C
:1021B00089890E94FB0E81EA91E00E94830E86E0ED
:1021C000E1EAF1E0DF011D928A95E9F70E943B0FF9
:1021D00036CF651312C0341310C0E1100EC0F801E1
:1021E0008583C8010E94830EE1EAF1E086E0DF0109
:1021F0001D928A95E9F7FA2C22CF4D875E878D854F
:102200009E850E94CC0E882309F470C0EE2009F44C
:102210006DC08091A601803208F4B5CF2091A10154
:102220003091A2013A8329831B82DD82CC828E8386
:10223000CE010196A6CFC816D90638F1F601E81BE3
:10224000F90BCF01F12C883C910508F03DC0FE2C24
:10225000EE2009F44BC0651326C0341324C08091CE
:10226000A60180FD17C0982F907FA1F0D801159688
:102270008C931597903F09F45CCF982F907F905FD7
:102280008F70892B15968C9354CF809590958C0DDB
:102290009D1DD8CF86E0F801A1EAB1E001900D9232
:1022A0008A95E1F7CCCE4D875E878D859E850E940D
:1022B000CC0E811168CF8091A60181608093A60128
:1022C000C8010E94830EBBCE7C2DD98AC88A6E2D90
:1022D00089890E94FB0E73CFEE2041F04D875E8707
:1022E0008D859E850E94CC0E81114DCFC8010E9424
:1022F000830E55CF1F93CF93DF93CDB7DEB72C97C7
:102300000FB6F894DEBF0FBECDBF4F8358876987E5
:102310007A878B879C87CE0107960E94B40F88230B
:1023200009F442C09F8188852A853B85232B39F09B
:102330008F3F19F481E09F3F19F080E001C081E0F8
:1023400080FD08C04F81588569857A858B859C857D
:102350000E940A0F16E080916F0190917001891719
:1023600009F467C0819FC00111248F589E4F0E94BD
:10237000B40F882309F45DC0E0916F011E9FF00146
:102380001124EF58FE4F4081518162817381848115
:1023900095810E940A0F80916F0190E001968770ED
:1023A000992780936F01D7CF86E0FE013796DE0133
:1023B000119601900D928A95E1F79F8188852A8573
:1023C0003B85232B39F08F3F19F481E09F3F19F0B3
:1023D00080E001C081E080FDBDCF2091700130E040
:1023E000C90101968770992740916F014817190616
:1023F00099F096E0929FD001939FB00D1124AF58B1
:10240000BE4FFE01319601900D929A95E1F78093AF
:1024100070010E941A0F9ECF0E94C80E1092700188
:1024200010926F0186E0E1EAF1E0DF011D928A95EA
:10243000E9F72C960FB6F894DEBF0FBECDBFDF9143
:10244000CF911F910895EF92FF920F931F93CF9317
:10245000DF938C01892B81F0F12CEE24E394E801C9
:102460002196F8018491843770F4843008F05FC0BD
:102470008130B1F08230A1F1DF91CF911F910F91A6
:10248000FF90EF900895853709F44CC008F43DC0E3
:102490009CE7980F903780F78F770E94030C49C014
:1024A0000E5F1F4FFE01849190E2980F983060F408
:1024B0008770FE2D01C0FF0F8A95EAF78F2F0E94CB
:1024C00070150E94971502C00E94270B8F2D815016
:1024D00030F2EFE9FFE03197F1F700C00000F7CFED
:1024E0000E5F1F4FFE01849190E2980F983050F4D8
:1024F0008770FE2D01C0FF0F8A95EAF78F2F0E948B
:102500007615DFCF0E94030CE1CF0E5F1F4FFE0157
:10251000C491C150D8F28FE99FE00197F1F700C054
:102520000000F7CF0E5F1F4FFE01F490CFCF0E9447
:10253000270B8E01CBCF08956093CE017093CF010E
:102540008093D0019093D1010C94B40E0F931F93FC
:102550000091CE011091CF012091D0013091D10195
:10256000DC01CB01802B912BA22BB32B8093CE01CE
:102570009093CF01A093D001B093D1011F910F91FF
:102580000C94B40E0F931F930091CE011091CF01C4
:102590002091D0013091D101DC01CB018023912326
:1025A000A223B3238093CE019093CF01A093D001B7
:1025B000B093D1011F910F910C94B40E0F931F9300
:1025C0000091CE011091CF012091D0013091D10125
:1025D000DC01CB0180279127A227B3278093CE016E
:1025E0009093CF01A093D001B093D1011F910F918F
:1025F0000C94B40E1092CA011092CB011092CC012F
:102600001092CD010C94B40E41E050E060E070E017
:1026100004C0440F551F661F771F8A95D2F7409359
:10262000CA015093CB016093CC017093CD010C94FF
:10263000B40E41E050E060E070E004C0440F551F6C
:10264000661F771F8A95D2F78091CA019091CB01BE
:10265000A091CC01B091CD01842B952BA62BB72B4B
:102660008093CA019093CB01A093CC01B093CD018C
:102670000C94B40E41E050E060E070E004C0440F00
:10268000551F661F771F8A95D2F740955095609524
:1026900070958091CA019091CB01A091CC01B0912D
:1026A000CD0184239523A623B7238093CA01909359
:1026B000CB01A093CC01B093CD010C94B40E41E0BA
:1026C00050E060E070E004C0440F551F661F771FA4
:1026D0008A95D2F78091CA019091CB01A091CC014B
:1026E000B091CD0184279527A627B7278093CA01EB
:1026F0009093CB01A093CC01B093CD010C94B40E78
:102700000F931F930091CA011091CB012091CC012E
:102710003091CD01DC01CB01802B912BA22BB32B6F
:102720008093CA019093CB01A093CC01B093CD01CB
:102730001F910F910C94B40E0F931F930091CA0137
:102740001091CB012091CC013091CD01DC01CB0166
:1027500080239123A223B3238093CA019093CB01BA
:10276000A093CC01B093CD011F910F910C94B40EA6
:102770000F931F930091CA011091CB012091CC01BE
:102780003091CD01DC01CB0180279127A227B3270F
:102790008093CA019093CB01A093CC01B093CD015B
:1027A0001F910F910C94B40E08952EE0929F800D0E
:1027B0001124982F977071E001C0770F9A95EAF76E
:1027C00086958695869525E0829FC001112450E06C
:1027D00040E0A62FB0E0FC01E40FF51FE955FE4FE5
:1027E00060819D01042E02C0369527950A94E2F778
:1027F0002170219526272723262720834F5F5F4FAF
:102800004530510541F708952EE0929F800D112427
:10281000982F977086958695869525E0829FA001D2
:10282000112470E060E080E0FA01E60FF71FE9553F
:10283000FE4F208130E0092E02C0369527950A947C
:10284000E2F721703327062E01C0220F0A94EAF71F
:10285000822B6F5F7F4F6530710531F70895BF920E
:10286000CF92DF92EF92FF920F931F93CF93DF935C
:102870008C01C090CA01D090CB01E090CC01F090C7
:10288000CD018091CE019091CF01A091D001B09166
:10289000D101C82AD92AEA2AFB2ACFE1D0E0BC2EEE
:1028A000D701C6010C2E04C0B695A79597958795BC
:1028B0000A94D2F780FD0EC0219788F7B12C8B2D9A
:1028C000DF91CF911F910F91FF90EF90DF90CF900C
:1028D000BF900895B8018C2F0E947106019761F393
:1028E000EECFCF93DF93EC010E942F14BE01DF9156
:1028F000CF910C9471061F93CF93DF93EB019091CE
:102900006E01992331F0CB01DF91CF911F910C948F
:102910007114882379F0CB010E942F14182F682F8F
:10292000CE010E94D513BE01812FDF91CF911F915F
:102930000C947106CB010E940414182FF4CF8091DF
:10294000D20185958595859508958091D2018770EE
:10295000089598E0899F90011124622B6093D20121
:102960000C9419139091D201809589238093D20100
:10297000282F277061F4282F082E000C330B921794
:10298000130629F08595859585950C943A1308953D
:102990009091D201977081E009F480E008959091C0
:1029A00012019923E1F09091280297FF18C0E82FB7
:1029B000E695E695E695EF3139F1209100013091E9
:1029C0000101E20FF32FF11D877021E030E001C01B
:1029D000220F8A95EAF78181822B818308952091C5
:1029E000000130910101F90132969FEF40E05191D1
:1029F000851751F09F3F19F4511101C0942F4F5F7B
:102A00004E31A9F79F3F09F40895290F311D97FD15
:102A10003A95F90182830895909112019923F1F07A
:102A20009091280297FF1AC0E82FE695E695E69563
:102A3000EF3129F12091000130910101E20FF32FD4
:102A4000F11D282F277081E090E001C0880F2A95A2
:102A5000EAF780959181892381830895209100016F
:102A600030910101F9013296205E3F4F9191891317
:102A700003C0DF0111971C92E217F307B9F708951D
:102A800081E090E0E0910001F0910101E80FF91F71
:102A90001082019680329105A9F708959091F60170
:102AA000892B8093F6010895982F90958091F601D7
:102AB00089238093F60108951092F601089590916C
:102AC000F501892B8093F5010895982F90958091B9
:102AD000F50189238093F50108951092F501089579
:102AE0009091F401892B8093F4010895982F90958B
:102AF0008091F40189238093F40108951092F401E8
:102B000008958093D30108951092D30108952091E0
:102B1000000130910101F9013196205E3F4F80E0C4
:102B2000919191118F5FE217F307D1F70895E0912A
:102B30000001F09101018091F6018083E091000194
:102B4000F091010180819091F501892B8083E091C2
:102B50000001F091010180819091F401892B808323
:102B60009091D301992361F0E0910001F09101016E
:102B70008081892B80830E94871581111092D30157
:102B800080910001909101010C94F8096DEE7EEFA7
:102B900090E080E00E94E22260E082E090E00E940B
:102BA000D02260E083E090E00E94D02260E084E0E8
:102BB00090E00E94D02260E085E090E00C94D0226A
:102BC00090E080E00E94CA2221E08D3E9E4F09F0F5
:102BD00020E0822F089582E090E00C94C222682FBA
:102BE00082E090E00C94D02283E090E00C94C2222A
:102BF000682F83E090E00C94D02284E090E00C9465
:102C0000C222682F84E090E00C94D02280912E02A2
:102C1000843039F11092F80188E190E020E40FB699
:102C2000F894A895809360000FBE2093600080E028
:102C30000E94520683B7817F846083BF83B781601F
:102C400083BF7894889583B78E7F83BF0FB6F8943F
:102C5000A895809160008861809360001092600068
:102C60000FBE089508950895CF930E9432160E94D2
:102C70001C090E943316C0E08C2F0E94DD09892BAD
:102C800031F4CF5FC430C1F780E0CF91089581E087
:102C9000FCCF0E94C80E0E94EC090C9452061F92B1
:102CA0000F920FB60F9211248F939F93AF93BF9300
:102CB0008091F801811113C0809124029091250226
:102CC000A0912602B09127024196A11DB11D8093CB
:102CD000240290932502A0932602B0932702BF916D
:102CE000AF919F918F910F900FBE0F901F901895ED
:102CF00082E084BD93E095BD9AEF97BD80936E000E
:102D000008952FB7F8948091240290912502A09104
:102D10002602B09127022FBF0895CF92DF92EF9243
:102D2000FF920F931F932FB7F89440912402509174
:102D3000250260912602709127022FBF6A017B0154
:102D4000EE24FF248C0130E020E0C016D106E2061C
:102D5000F30650F0481B590BCA011F910F91FF90C9
:102D6000EF90DF90CF90089541505109F3CF1F921B
:102D70000F920FB60F9211248F939F93AF93BF932F
:102D80008091240290912502A0912602B091270201
:102D90000196A11DB11D8093240290932502A0935A
:102DA0002602B0932702BF91AF919F918F910F9010
:102DB0000FBE0F901F9018950E94681EF8942FEF79
:102DC00087EA91E6215080409040E1F700C0000082
:102DD00087E090EBDC018093370290933802A09358
:102DE0003902B0933A0288E19CE00FB6F894A895B6
:102DF000809360000FBE90936000FFCFAF92BF92B0
:102E0000CF92DF92EF92FF920F931F93CF93C0E088
:102E1000CC24C394D12CE82EF12C8C2F0E94DD09F8
:102E20005C0110E000E0C601002E02C0880F991F6F
:102E30000A94E2F78A219B21892B99F40F5F1F4F97
:102E40000E30110581F7CF5FC43039F780E0CF91A4
:102E50001F910F91FF90EF90DF90CF90BF90AF90B8
:102E60000895602F7C2F80E00E945506E816F90631
:102E700029F781E0ECCFCF93C82F8CE20E94FE1699
:102E8000882321F08C2FCF910C94FE1680E0CF91F7
:102E90000895CF930E94E015811102C00E94C615CB
:102EA000C5E608C00E941C098FE39CE90197F1F771
:102EB00000C00000C150B1F789E20E943B178111A8
:102EC000EFC08AE20E943B1781110E94C61585E07F
:102ED0000E943B1781110E94DC160E94EB15809323
:102EE000F70187E00E943B17882371F08BE10E9475
:102EF0003B17882309F4B1C09091F701892F8D7F8A
:102F000091FF82608093F7018091F7010E94EF1595
:102F10000E94FD1590E0909329028093280280EE94
:102F20000E943B17882341F090912802892F8E7FC1
:102F300090FF81608093280289E30E943B178823D9
:102F400041F090912802892F8D7F91FF82608093BC
:102F5000280282EE0E943B17882341F090912802BC
:102F6000892F8B7F92FF84608093280286EE0E94D7
:102F70003B17882341F090912802892F877F93FF88
:102F800088608093280283EE0E943B17882341F0DB
:102F900090912802892F8F7E94FF80618093280270
:102FA00085E30E943B17882341F090912802892FE6
:102FB0008F7D95FF80628093280281E30E943B17FA
:102FC000882341F090912802892F8F7B96FF80649F
:102FD0008093280281E10E943B17882341F0909161
:102FE0002802892F97FB87F98058809328028091C7
:102FF00028020E94011687E20E943B17C82F8EE12B
:103000000E943B178111C2608FE10E943B17811122
:10301000C46080E20E943B178111C86081E20E9477
:103020003B178111C06182E20E943B178111C0628F
:1030300083E20E943B178111C06484E20E943B1727
:10304000882341F1C0688C2F0E94F8156C2F70E026
:1030500090E080E0CF910C949C128EE00E943B1790
:10306000882339F09091F701892F8B7F92FF84603C
:1030700049CF80E10E943B179091F701882329F006
:10308000892F877F93FF88603DCF892F8E7F90FFA8
:10309000816038CFC111D7CF0E94F415682FD7CFE8
:1030A000CF9108958091FB0180FF12C060910501CE
:1030B00085E0689FB00111247595679575956795B2
:1030C00060387105A8F561157105A1F1862F089585
:1030D00081FF09C06091050185E0689FB00111245E
:1030E00075956795EDCF82FF07C06091050185E07A
:1030F000689FB0011124E4CF2091FC012223A9F0A4
:10310000909104016091050185E0689FB001112450
:103110002917B0F6269FA001279F500D1124692F73
:1031200070E0CA010E949422CBCF65E070E0CECF60
:103130008FE7089581E008958091FB0180FF0CC026
:103140006091030170E075956795759567956115B8
:10315000710549F1862F089581FF06C06091030132
:1031600070E075956795F3CF6091030182FD0BC008
:103170009091FC019923A1F06091020180910301DB
:10318000961738F0682F70E06038710500F38FE70C
:103190000895899FC001112470E00E949422F4CF09
:1031A00061E070E0D7CF81E00895803F31F40E9464
:1031B000521881958093FF010895813F19F40E9470
:1031C0005218F8CF823F31F40E94521881958093B3
:1031D000FE010895833F19F40E945218F8CF893FE9
:1031E00029F40E949C188093000208958A3F21F4DC
:1031F0000E949C188195F7CF8B3F31F40E949C1858
:1032000081958093010208958C3F19F40E949C18C7
:10321000F8CF843F31F48091FD0181608093FD01FE
:103220000895853F21F48091FD018260F7CF863FAC
:1032300021F48091FD018460F1CF873F21F48091DA
:10324000FD018860EBCF883F21F48091FD01806112
:10325000E5CF8D3F31F48091FB0181608093FB01CC
:1032600008958E3F21F48091FB018260F7CF8F3F5C
:10327000B9F78091FB018460F1CF803FC1F4809168
:10328000FF0187FD1092FF018091FE0181110EC0A8
:103290008091FF0181110AC080910002811106C056
:1032A00080910102811102C01092FC010895813FBA
:1032B00029F48091FF0118162CF3E6CF9091FE01BE
:1032C000823F29F497FFE0CF1092FE01DDCF833FCC
:1032D00019F41916CCF3D8CF893F39F48091000244
:1032E000181694F610920002CFCF8A3F29F48091ED
:1032F000000287FFC9CFF6CF8B3F39F480910102DE
:1033000087FFC2CF10920102BFCF8C3F29F480917A
:1033100001021816BCF3B8CF843F31F48091FD014F
:103320008E7F8093FD01B0CF853F21F48091FD0118
:103330008D7FF7CF863F21F48091FD018B7FF1CF08
:10334000873F21F48091FD01877FEBCF883F21F4F7
:103350008091FD018F7EE5CF8D3F31F48091FB019F
:103360008E7F8093FB0190CF8E3F21F48091FB01F3
:103370008D7FF7CF8F3F09F087CF8091FB018B7F47
:10338000F0CF8DEF91E00E94030A0E948116909386
:10339000FA018093F90108951F93CF93DF938091F1
:1033A000F9019091FA010E948D16AC019091FC01F7
:1033B0002091060130E0911106C0209107018AE0BA
:1033C000289F900111244217530780F08091FE013D
:1033D000C091FF0110910002D091010281110AC039
:1033E000C11178C0111176C0D11174C0DF91CF9195
:1033F0001F9108959F3F19F09F5F9093FC0118164D
:1034000024F40E9452188093FE018091FE0187FFF0
:1034100005C00E94521881958093FE011C1624F469
:103420000E9452188093FF018091FF0187FF05C021
:103430000E94521881958093FF016091FE016623DE
:1034400031F1C091FF01CC2311F1062E000C770B56
:10345000880B990B0E949B2123E333E343E35FE353
:103460000E94FF210E9463216093FE016C2FCC0F0C
:10347000770B880B990B0E949B2123E333E343E3F3
:103480005FE30E94FF210E9463216093FF011116F8
:1034900024F40E949C18809300028091000287FF10
:1034A00005C00E949C188195809300021D1624F48B
:1034B0000E949C18809301028091010287FF05C041
:1034C0000E949C18819580930102DF91CF911F91FA
:1034D0000C94C1199F3F09F08FCFA0CF85E0EDEF8D
:1034E000F1E0DF011D928A95E9F71092FC0110923C
:1034F000FB010895809122020895CF93DF9300D0BD
:103500001F92CDB7DEB79C0180912E02843019F551
:1035100093E099833B832A839093E9008FEF909106
:10352000E800815095FD06C095ED9A95F1F70000F1
:103530008111F5CF8091E80085FF0DC050E040E09B
:1035400063E070E0CE0101960E94D81C8091E800F3
:103550008E778093E8000F900F900F90DF91CF91BE
:103560000895CF93DF9300D01F92CDB7DEB720919F
:103570002E02243031F522E02983805891099B8363
:103580008A8383E08093E9008FEF9091E800815077
:1035900095FD06C095ED9A95F1F700008111F5CFE4
:1035A0008091E80085FF0DC050E040E063E070E0EE
:1035B000CE0101960E94D81C8091E8008E778093FE
:1035C000E8000F900F900F90DF91CF9108959C012C
:1035D00080912E028430F9F482E08093E9009FEF1D
:1035E0008091E800915085FD06C085ED8A95F1F740
:1035F00000009111F5CF8091E80085FF0CC050E0EC
:1036000040E065E070E0C9010E94D81C8091E800AC
:103610008E778093E8000895CF93DF93EC0180913B
:103620002E028430F1F4909112019923E9F09091E7
:10363000280297FF19C08093E9008FEF9091E8006E
:10364000815095FD06C095E19A95F1F70000811132
:10365000F5CF8091E80050E040E060E270E085FD49
:103660001AC0DF91CF91089581E08093E9008FEF38
:103670009091E800815095FD06C095ED9A95F1F77F
:1036800000008111F5CF8091E80085FFEACF50E07E
:1036900040E068E070E0CE010E94D81C8091E80014
:1036A0008E778093E80080E2FE01A2E0B2E0019014
:1036B0000D928A95E1F7D5CF80912D02811109C035
:1036C0000E94681E0E94C51E8091E2008460809363
:1036D000E200089510922D020895089508950C9423
:1036E000491642E061EC81E00E94E61D42E061EC97
:1036F00082E00E94E61D42E061EC83E00E94E61D4C
:1037000042E261EC84E00C94E61D8091300283304B
:1037100009F455C030F4813071F1823009F491C060
:1037200008958A3009F47DC08B3009F463C0893074
:1037300009F044C080912F02813209F03FC080918E
:10374000330290913402009711F00397B9F58091FC
:10375000E800877F8093E8008091E80082FF2AC01C
:103760008091F100809322028091E8008B77809312
:10377000E8000C941A1E80912F02813AF9F480918E
:10378000E800877F8093E8008091330290913402B3
:10379000892B61F460E282E092E070E00E94271DD4
:1037A0008091E8008B778093E800089560E090E0D6
:1037B00080E0F3CF80912E028111CECF08958091C9
:1037C0002F02813AD9F78091330290913402892BEC
:1037D000A9F78091E800877F8093E8008091E80056
:1037E00080FFFCCF809112018093F1008091E8006E
:1037F0008E77BDCF80912F02813201F78091330205
:1038000090913402892BD1F68091E800877F8093D4
:10381000E8000E941A1E80913102809312010C94DC
:10382000C80E80912F02813249F68091E800877F8F
:103830008093E8000E941A1E809132028093230236
:10384000089580912F02813A09F0B8CF8091E80065
:10385000877F8093E8008091E80080FFFCCF809113
:103860002302C2CF84B7877F84BF0FB6F894A89590
:1038700080916000886180936000109260000FBEAC
:1038800080E880936100109261000E943B0A0E94D0
:10389000681E0E94C51E8091E20084608093E20051
:1038A00078940E9447210E943D0A88E091E00E949E
:1038B000E70980912E02853019F00E94430AF9CF62
:1038C0000E94061680912C02882399F30E943416D8
:1038D000882379F30E94C21CECCF292F3327233091
:1038E000310579F158F421303105F1F022303105FC
:1038F00019F190E080E030E020E01AC0213231057B
:1039000099F122323105A9F7643098F770E0FB0194
:10391000EE0FFF1FE75DFE4F208131816B5D7E4F13
:10392000FB01808190E004C082E190E029E438E06E
:10393000FA013183208308958DE690E02CED37E085
:10394000F7CF99278130910561F028F0029789F629
:10395000ECEAF7E002C0E8EDF7E0849190E09F0127
:10396000E7CFE0ECF7E0F9CF643008F0C2CFE62F04
:10397000F0E0EE0FFF1FEF5CFE4F2081318189E008
:1039800090E0D6CF80E189BD82E189BD09B400FE17
:10399000FDCF8091D8008F7D8093D8008091E0008A
:1039A00082608093E0008091E00081FDFCCF08956B
:1039B000AF92BF92CF92DF92FF920F931F93CF935C
:1039C000DF936C01EB018A010E94391EF82E8111F0
:1039D00023C00115110539F0F80180819181C81BC0
:1039E000D90BC80ED91EB12CA12C2097A9F080911B
:1039F000E80085FD22C08091E8008E778093E80082
:103A000001151105A1F0F80180819181A80EB91E60
:103A1000B182A08285E0F82E8F2DDF91CF911F918A
:103A20000F91FF90DF90CF90BF90AF9008950E94CC
:103A3000391E8823D1F2F82EEFCFF60181916F0164
:103A40008093F1002197FFEFAF1ABF0ACECFFC01A0
:103A5000809135029091360286179707A0F0611584
:103A6000710529F49091E8009E779093E80090E02A
:103A70006115710551F4911108C08091E80082FF31
:103A800035C080E00895BC01F2CF80912E028823DA
:103A9000C9F18530C9F18091E80083FD31C0809182
:103AA000E80082FDEACF8091E80080FFE1CF20911D
:103AB000F3008091F200322F282F6115710519F063
:103AC0002830310558F091E02830310509F090E0B8
:103AD0002091E8002E772093E800CACF819180934F
:103AE000F100615071092F5F3F4FE7CF80912E02A7
:103AF000882341F0853041F08091E80083FFBDCFFD
:103B000081E0089582E0089583E00895FC018091AA
:103B100035029091360286179707A0F0611571055E
:103B200029F48091E8008E778093E80090E0611599
:103B3000710551F4911108C08091E80082FF36C0F0
:103B400080E00895BC01F2CF80912E028823D1F14C
:103B50008530D1F18091E80083FD32C08091E8008A
:103B600082FDEACF8091E80080FFE1CF2091F30051
:103B70008091F200322F282F6115710519F028303D
:103B8000310558F091E02830310509F090E080913E
:103B9000E8008E778093E800CACF84918093F1008B
:103BA0003196615071092F5F3F4FE6CF80912E0211
:103BB000882341F0853041F08091E80083FFBCCF3D
:103BC00081E0089582E0089583E00895982F97306A
:103BD00028F08F708093E90081E008959093E900C8
:103BE000242F762F50E0981731F07091EC0020913F
:103BF000ED005091F00021FD02C09F5FE8CF3091B1
:103C0000EB003E7F3093EB003091ED003D7F309331
:103C1000ED003091EB0031603093EB007093EC00DD
:103C20002093ED005093F0002091EE0027FDE5CFAA
:103C300080E0089580912F0287FF13C08091E800F3
:103C400082FF06C08091E8008B778093E80004C073
:103C500080912E028111F2CF089580912E02882347
:103C6000D9F38091E80080FFF8CF8091E8008E774B
:103C7000ECCF2091E4003091E50085E69091EC00D6
:103C800090FF06C09091E80090FF06C080E0089584
:103C90009091E80092FDFACF90912E02992391F035
:103CA000953091F09091EB0095FD10C04091E400AB
:103CB0005091E5002417350709F381509A01F1F678
:103CC00084E0089582E0089583E0089581E00895F6
:103CD0000E94D61E0E94DE1EE0EEF0E08081816030
:103CE0008083E8EDF0E080818F77808319BCA7EDB9
:103CF000B0E08C918E7F8C9380818F7E8083109238
:103D00002D0208950F931F93CF93DF930E94D61E29
:103D10000E94DE1EC8EDD0E088818F77888388817D
:103D20008068888388818F7D888319BC10922E02D9
:103D300010922A0210922C0210922B0200EE10E038
:103D4000F80180818B7F808388818160888342E055
:103D500060E080E00E94E61DE1EEF0E080818E7F71
:103D60008083E2EEF0E080818160808380818860E2
:103D70008083F80180818E7F808388818061888341
:103D8000DF91CF911F910F910895E8EDF0E08081D0
:103D90008F7E8083E7EDF0E080818160808384E026
:103DA00082BF81E080932D020C94821EE8EDF0E04A
:103DB00080818E7F80831092E20008951092DA0055
:103DC0001092E10008951F920F920FB60F921124E6
:103DD0002F933F934F935F936F937F938F939F9313
:103DE000AF93BF93EF93FF938091E10082FF0BC0ED
:103DF0008091E20082FF07C08091E1008B7F809379
:103E0000E1000E9446218091DA0080FF19C0809174
:103E1000D80080FF15C08091DA008E7F8093DA0091
:103E20008091D90080FF94C080E189BD82E189BD85
:103E300009B400FEFDCF81E080932E020E945C1B3E
:103E40008091E10080FF19C08091E20080FF15C0E1
:103E50008091E2008E7F8093E2008091E200806199
:103E60008093E2008091D80080628093D80019BCD2
:103E700085E080932E020E946E1B8091E10084FFFA
:103E800029C08091E20084FF25C080E189BD82E1E4
:103E900089BD09B400FEFDCF8091D8008F7D80934D
:103EA000D8008091E1008F7E8093E1008091E20054
:103EB0008F7E8093E2008091E20081608093E20037
:103EC00080912A02882309F449C084E080932E025D
:103ED0000E946F1B8091E10083FF29C08091E20066
:103EE00083FF25C08091E100877F8093E10082E01D
:103EF00080932E0210922A028091E1008E7F80939F
:103F0000E1008091E2008E7F8093E2008091E200E8
:103F100080618093E20042E060E080E00E94E61D64
:103F20008091F00088608093F0000E946D1BFF91EB
:103F3000EF91BF91AF919F918F917F916F915F9121
:103F40004F913F912F910F900FBE0F901F9018959A
:103F500019BC10922E020E946A1B72CF8091E3005E
:103F600087FD02C081E0B2CF83E0B0CF1F920F92F5
:103F70000FB60F9211242F933F934F935F936F933C
:103F80007F938F939F93AF93BF93CF93EF93FF93C1
:103F9000C091E900CF708091EC001092E90080910F
:103FA000F000877F8093F00078940E94F21F1092B7
:103FB000E9008091F00088608093F000C093E900F0
:103FC000FF91EF91CF91BF91AF919F918F917F9191
:103FD0006F915F914F913F912F910F900FBE0F9076
:103FE0001F9018951F93CF93DF93CDB7DEB7AA9795
:103FF0000FB6F894DEBF0FBECDBFEFE2F2E08091C6
:10400000F100819322E0E733F207C9F70E94851B94
:104010008091E80083FF42C080912F02909130028E
:104020009A3008F03BC0E92FF0E0E75EFF4D0C94BA
:10403000A822232047204E2047204E20A220C42023
:104040004E2019212621803879F0823839F5809167
:1040500033028F708093E9008091EB0085FB882705
:1040600080F91092E90006C080912B0290912C02F9
:10407000911182609091E800977F9093E80080937F
:10408000F1001092F1008091E8008E772DC0282F6A
:104090002D7F21F48823D1F0823059F18091E800FE
:1040A00083FF0AC08091E800877F8093E8008091B9
:1040B000EB0080628093EB00AA960FB6F894DEBF07
:1040C0000FBECDBFDF91CF911F9108958091310236
:1040D000813021F7933009F080E080932C02109218
:1040E000E9008091E800877F8093E8000E941A1E13
:1040F000D5CF809131028111F2CF809133028F7040
:1041000069F28093E9002091EB0020FFE8CF933023
:1041100031F48091EB0080628093EB00E0CF9091CE
:10412000EB0090619093EB0021E030E001C0220FA2
:104130008A95EAF72093EA001092EA008091EB005A
:104140008860EACF8111AACF109131021F77809148
:10415000E3008078812B8093E3008091E800877FE3
:104160008093E8000E941A1E8091E80080FFFCCF37
:104170008091E30080688093E30083E0111101C027
:1041800082E080932E028ACF8058823008F086CF5A
:1041900080913102909132028C3D23E09207A1F58B
:1041A00083E08A838AE289834FB7F894DE0113960D
:1041B00020E03EE051E2E32FF0E050935700E4911D
:1041C00020FF03C0E295EF703F5FEF708E2F90E00D
:1041D000EA30C0F0C7968D939D932F5F243159F735
:1041E0004FBF8091E800877F8093E8006AE270E02B
:1041F000CE0101960E94271D8091E8008B77809365
:10420000E8004CCFC096E7CFAE014F5F5F4F6091A3
:1042100033020E946D1CBC01892B09F43FCF9091A1
:10422000E800977F9093E80089819A810E94861D1B
:10423000E3CF803809F032CF8091E800877F809308
:10424000E80080912A028093F1001DCF811126CFD2
:1042500090913102923008F021CF8091E800877F61
:104260008093E80090932A020E941A1E80912A02ED
:10427000882331F084E080932E020E94711B0ECFC0
:104280008091E30087FDF6CF81E0F5CF0895CF93CD
:1042900080912E02882399F0C091E900CF7080911F
:1042A000EC0080FD0EC080E0C82B1092E9008091E8
:1042B000E80083FD0E94F21FCF70C093E900CF9108
:1042C000089580E8F1CF0E946A216894B1110C949E
:1042D000F92108950E94DE2188F09F5798F0B92FA8
:1042E0009927B751B0F0E1F0660F771F881F991F2B
:1042F0001AF0BA95C9F714C0B13091F00E94F821B4
:10430000B1E008950C94F821672F782F8827B85FC3
:1043100039F0B93FCCF3869577956795B395D9F782
:104320003EF490958095709561957F4F8F4F9F4F8C
:104330000895E89409C097FB3EF490958095709598
:1043400061957F4F8F4F9F4F9923A9F0F92F96E9E1
:10435000BB279395F695879577956795B795F11156
:10436000F8CFFAF4BB0F11F460FF1BC06F5F7F4FF3
:104370008F4F9F4F16C0882311F096E911C0772305
:1043800021F09EE8872F762F05C0662371F096E80E
:10439000862F70E060E02AF09A95660F771F881FDD
:1043A000DAF7880F9695879597F9089557FD9058F5
:1043B000440F551F59F05F3F71F04795880F97FBE9
:1043C000991F61F09F3F79F08795089512161306A3
:1043D0001406551FF2CF4695F1DF08C016161706D2
:1043E0001806991FF1CF8695710561050894089507
:1043F000E894BB2766277727CB0197F908950E9499
:1044000012220C9483220E94752238F00E947C2292
:1044100020F0952311F00C946C220C94722211243C
:104420000C94F9210E94D62170F3959FC1F3950F4A
:1044300050E0551F629FF001729FBB27F00DB11D28
:10444000639FAA27F00DB11DAA1F649F6627B00DB8
:10445000A11D661F829F2227B00DA11D621F739FA1
:10446000B00DA11D621F839FA00D611D221F749FAF
:104470003327A00D611D231F849F600D211D822FF6
:10448000762F6A2F11249F5750409AF0F1F088231D
:104490004AF0EE0FFF1FBB1F661F771F881F91504A
:1044A0005040A9F79E3F510580F00C946C220C946B
:1044B000F9215F3FE4F3983ED4F3869577956795AD
:1044C000B795F795E7959F5FC1F7FE2B880F911D74
:1044D0009695879597F9089597F99F6780E870E01A
:1044E00060E008959FEF80EC089500240A9416166A
:1044F000170618060906089500240A9412161306D2
:10450000140605060895092E0394000C11F488235F
:1045100052F0BB0F40F4BF2B11F460FF04C06F5F7B
:104520007F4F8F4F9F4F089597FB072E16F40094EF
:1045300007D077FD09D00E94AE2207FC05D03EF4DB
:10454000909581959F4F0895709561957F4F08953F
:10455000EE0FFF1F0590F491E02D0994AA1BBB1BE1
:1045600051E107C0AA1FBB1FA617B70710F0A61B73
:10457000B70B881F991F5A95A9F780959095BC0194
:10458000CD010895F999FECF92BD81BDF89A992782
:1045900080B50895A8E1B0E042E050E00C94EA2232
:1045A000262FF999FECF92BD81BDF89A019700B4EC
:1045B000021639F01FBA20BD0FB6F894FA9AF99A8C
:1045C0000FBE08950196272F0E94D1220C94D0226D
:1045D000DC01CB01FC01F999FECF06C0F2BDE1BDC3
:1045E000F89A319600B40D9241505040B8F70895B2
:0445F000F894FFCF6D
:1045F400D4012808140A321E7A1A0C1BE71AB11ABD
:104604007D1A01343593929190F4F5F6F7313332F3
:1046140036946697C6404D36391709CA0894085B24
:0A46240008EE070708200839080017
:00000001FF
